{
	"contracts/Project.sol": {
		"Project": {
			"abi": [
				{
					"anonymous": false,
					"inputs": [
						{
							"indexed": true,
							"internalType": "address",
							"name": "donor",
							"type": "address"
						},
						{
							"indexed": false,
							"internalType": "uint256",
							"name": "amount",
							"type": "uint256"
						}
					],
					"name": "DonationReceived",
					"type": "event"
				},
				{
					"anonymous": false,
					"inputs": [
						{
							"indexed": true,
							"internalType": "address",
							"name": "donor",
							"type": "address"
						},
						{
							"indexed": false,
							"internalType": "uint256",
							"name": "amount",
							"type": "uint256"
						}
					],
					"name": "FundsRefunded",
					"type": "event"
				},
				{
					"anonymous": false,
					"inputs": [
						{
							"indexed": true,
							"internalType": "address",
							"name": "creator",
							"type": "address"
						},
						{
							"indexed": false,
							"internalType": "uint256",
							"name": "amount",
							"type": "uint256"
						}
					],
					"name": "FundsWithdrawn",
					"type": "event"
				},
				{
					"anonymous": false,
					"inputs": [
						{
							"indexed": false,
							"internalType": "enum Project.ProjectState",
							"name": "newState",
							"type": "uint8"
						}
					],
					"name": "ProjectStateChanged",
					"type": "event"
				},
				{
					"inputs": [],
					"name": "creator",
					"outputs": [
						{
							"internalType": "address",
							"name": "",
							"type": "address"
						}
					],
					"stateMutability": "view",
					"type": "function"
				},
				{
					"inputs": [],
					"name": "currentAmount",
					"outputs": [
						{
							"internalType": "uint256",
							"name": "",
							"type": "uint256"
						}
					],
					"stateMutability": "view",
					"type": "function"
				},
				{
					"inputs": [],
					"name": "deadline",
					"outputs": [
						{
							"internalType": "uint256",
							"name": "",
							"type": "uint256"
						}
					],
					"stateMutability": "view",
					"type": "function"
				},
				{
					"inputs": [],
					"name": "description",
					"outputs": [
						{
							"internalType": "string",
							"name": "",
							"type": "string"
						}
					],
					"stateMutability": "view",
					"type": "function"
				},
				{
					"inputs": [],
					"name": "donate",
					"outputs": [],
					"stateMutability": "payable",
					"type": "function"
				},
				{
					"inputs": [
						{
							"internalType": "uint256",
							"name": "",
							"type": "uint256"
						}
					],
					"name": "donations",
					"outputs": [
						{
							"internalType": "address",
							"name": "donor",
							"type": "address"
						},
						{
							"internalType": "uint256",
							"name": "amount",
							"type": "uint256"
						}
					],
					"stateMutability": "view",
					"type": "function"
				},
				{
					"inputs": [],
					"name": "goalAmount",
					"outputs": [
						{
							"internalType": "uint256",
							"name": "",
							"type": "uint256"
						}
					],
					"stateMutability": "view",
					"type": "function"
				},
				{
					"inputs": [
						{
							"internalType": "address",
							"name": "_creator",
							"type": "address"
						},
						{
							"internalType": "string",
							"name": "_description",
							"type": "string"
						},
						{
							"internalType": "uint256",
							"name": "_goalAmount",
							"type": "uint256"
						},
						{
							"internalType": "uint256",
							"name": "_duration",
							"type": "uint256"
						}
					],
					"name": "initialize",
					"outputs": [],
					"stateMutability": "nonpayable",
					"type": "function"
				},
				{
					"inputs": [],
					"name": "refund",
					"outputs": [],
					"stateMutability": "nonpayable",
					"type": "function"
				},
				{
					"inputs": [],
					"name": "state",
					"outputs": [
						{
							"internalType": "enum Project.ProjectState",
							"name": "",
							"type": "uint8"
						}
					],
					"stateMutability": "view",
					"type": "function"
				},
				{
					"inputs": [],
					"name": "updateProjectState",
					"outputs": [],
					"stateMutability": "nonpayable",
					"type": "function"
				},
				{
					"inputs": [],
					"name": "withdrawFunds",
					"outputs": [],
					"stateMutability": "nonpayable",
					"type": "function"
				}
			],
			"devdoc": {
				"kind": "dev",
				"methods": {},
				"version": 1
			},
			"evm": {
				"assembly": "    /* \"contracts/Project.sol\":61:2949  contract Project {... */\n  mstore(0x40, 0x80)\n  callvalue\n  dup1\n  iszero\n  tag_1\n  jumpi\n  0x00\n  dup1\n  revert\ntag_1:\n  pop\n  dataSize(sub_0)\n  dup1\n  dataOffset(sub_0)\n  0x00\n  codecopy\n  0x00\n  return\nstop\n\nsub_0: assembly {\n        /* \"contracts/Project.sol\":61:2949  contract Project {... */\n      mstore(0x40, 0x80)\n      jumpi(tag_1, lt(calldatasize, 0x04))\n      shr(0xe0, calldataload(0x00))\n      dup1\n      0x7284e416\n      gt\n      tag_14\n      jumpi\n      dup1\n      0x7284e416\n      eq\n      tag_8\n      jumpi\n      dup1\n      0xc19d93fb\n      eq\n      tag_9\n      jumpi\n      dup1\n      0xe8668c52\n      eq\n      tag_10\n      jumpi\n      dup1\n      0xed88c68e\n      eq\n      tag_11\n      jumpi\n      dup1\n      0xf441b1c8\n      eq\n      tag_12\n      jumpi\n      dup1\n      0xf8626af8\n      eq\n      tag_13\n      jumpi\n      jump(tag_1)\n    tag_14:\n      dup1\n      0x02d05d3f\n      eq\n      tag_2\n      jumpi\n      dup1\n      0x24600fc3\n      eq\n      tag_3\n      jumpi\n      dup1\n      0x2636b945\n      eq\n      tag_4\n      jumpi\n      dup1\n      0x29dcb0cf\n      eq\n      tag_5\n      jumpi\n      dup1\n      0x3deb33e7\n      eq\n      tag_6\n      jumpi\n      dup1\n      0x590e1ae3\n      eq\n      tag_7\n      jumpi\n    tag_1:\n      0x00\n      dup1\n      revert\n        /* \"contracts/Project.sol\":223:245  address public creator */\n    tag_2:\n      callvalue\n      dup1\n      iszero\n      tag_15\n      jumpi\n      0x00\n      dup1\n      revert\n    tag_15:\n      pop\n      tag_16\n      tag_17\n      jump\t// in\n    tag_16:\n      mload(0x40)\n      tag_18\n      swap2\n      swap1\n      tag_19\n      jump\t// in\n    tag_18:\n      mload(0x40)\n      dup1\n      swap2\n      sub\n      swap1\n      return\n        /* \"contracts/Project.sol\":1689:1994  function withdrawFunds() external onlyCreator onlyAfterDeadline {... */\n    tag_3:\n      callvalue\n      dup1\n      iszero\n      tag_20\n      jumpi\n      0x00\n      dup1\n      revert\n    tag_20:\n      pop\n      tag_21\n      tag_22\n      jump\t// in\n    tag_21:\n      stop\n        /* \"contracts/Project.sol\":284:309  uint256 public goalAmount */\n    tag_4:\n      callvalue\n      dup1\n      iszero\n      tag_23\n      jumpi\n      0x00\n      dup1\n      revert\n    tag_23:\n      pop\n      tag_24\n      tag_25\n      jump\t// in\n    tag_24:\n      mload(0x40)\n      tag_26\n      swap2\n      swap1\n      tag_27\n      jump\t// in\n    tag_26:\n      mload(0x40)\n      dup1\n      swap2\n      sub\n      swap1\n      return\n        /* \"contracts/Project.sol\":316:339  uint256 public deadline */\n    tag_5:\n      callvalue\n      dup1\n      iszero\n      tag_28\n      jumpi\n      0x00\n      dup1\n      revert\n    tag_28:\n      pop\n      tag_29\n      tag_30\n      jump\t// in\n    tag_29:\n      mload(0x40)\n      tag_31\n      swap2\n      swap1\n      tag_27\n      jump\t// in\n    tag_31:\n      mload(0x40)\n      dup1\n      swap2\n      sub\n      swap1\n      return\n        /* \"contracts/Project.sol\":2593:2946  function updateProjectState() external onlyAfterDeadline {... */\n    tag_6:\n      callvalue\n      dup1\n      iszero\n      tag_32\n      jumpi\n      0x00\n      dup1\n      revert\n    tag_32:\n      pop\n      tag_33\n      tag_34\n      jump\t// in\n    tag_33:\n      stop\n        /* \"contracts/Project.sol\":2002:2585  function refund() external onlyAfterDeadline {... */\n    tag_7:\n      callvalue\n      dup1\n      iszero\n      tag_35\n      jumpi\n      0x00\n      dup1\n      revert\n    tag_35:\n      pop\n      tag_36\n      tag_37\n      jump\t// in\n    tag_36:\n      stop\n        /* \"contracts/Project.sol\":252:277  string public description */\n    tag_8:\n      callvalue\n      dup1\n      iszero\n      tag_38\n      jumpi\n      0x00\n      dup1\n      revert\n    tag_38:\n      pop\n      tag_39\n      tag_40\n      jump\t// in\n    tag_39:\n      mload(0x40)\n      tag_41\n      swap2\n      swap1\n      tag_42\n      jump\t// in\n    tag_41:\n      mload(0x40)\n      dup1\n      swap2\n      sub\n      swap1\n      return\n        /* \"contracts/Project.sol\":381:406  ProjectState public state */\n    tag_9:\n      callvalue\n      dup1\n      iszero\n      tag_43\n      jumpi\n      0x00\n      dup1\n      revert\n    tag_43:\n      pop\n      tag_44\n      tag_45\n      jump\t// in\n    tag_44:\n      mload(0x40)\n      tag_46\n      swap2\n      swap1\n      tag_47\n      jump\t// in\n    tag_46:\n      mload(0x40)\n      dup1\n      swap2\n      sub\n      swap1\n      return\n        /* \"contracts/Project.sol\":958:1268  function initialize(address _creator, string memory _description, uint256 _goalAmount, uint256 _duration) public {... */\n    tag_10:\n      callvalue\n      dup1\n      iszero\n      tag_48\n      jumpi\n      0x00\n      dup1\n      revert\n    tag_48:\n      pop\n      tag_49\n      0x04\n      dup1\n      calldatasize\n      sub\n      dup2\n      add\n      swap1\n      tag_50\n      swap2\n      swap1\n      tag_51\n      jump\t// in\n    tag_50:\n      tag_52\n      jump\t// in\n    tag_49:\n      stop\n        /* \"contracts/Project.sol\":1276:1681  function donate() external payable {... */\n    tag_11:\n      tag_53\n      tag_54\n      jump\t// in\n    tag_53:\n      stop\n        /* \"contracts/Project.sol\":346:374  uint256 public currentAmount */\n    tag_12:\n      callvalue\n      dup1\n      iszero\n      tag_55\n      jumpi\n      0x00\n      dup1\n      revert\n    tag_55:\n      pop\n      tag_56\n      tag_57\n      jump\t// in\n    tag_56:\n      mload(0x40)\n      tag_58\n      swap2\n      swap1\n      tag_27\n      jump\t// in\n    tag_58:\n      mload(0x40)\n      dup1\n      swap2\n      sub\n      swap1\n      return\n        /* \"contracts/Project.sol\":413:440  Donation[] public donations */\n    tag_13:\n      callvalue\n      dup1\n      iszero\n      tag_59\n      jumpi\n      0x00\n      dup1\n      revert\n    tag_59:\n      pop\n      tag_60\n      0x04\n      dup1\n      calldatasize\n      sub\n      dup2\n      add\n      swap1\n      tag_61\n      swap2\n      swap1\n      tag_62\n      jump\t// in\n    tag_61:\n      tag_63\n      jump\t// in\n    tag_60:\n      mload(0x40)\n      tag_64\n      swap3\n      swap2\n      swap1\n      tag_65\n      jump\t// in\n    tag_64:\n      mload(0x40)\n      dup1\n      swap2\n      sub\n      swap1\n      return\n        /* \"contracts/Project.sol\":223:245  address public creator */\n    tag_17:\n      0x00\n      dup1\n      sload\n      swap1\n      0x0100\n      exp\n      swap1\n      div\n      0xffffffffffffffffffffffffffffffffffffffff\n      and\n      dup2\n      jump\t// out\n        /* \"contracts/Project.sol\":1689:1994  function withdrawFunds() external onlyCreator onlyAfterDeadline {... */\n    tag_22:\n        /* \"contracts/Project.sol\":763:770  creator */\n      0x00\n      dup1\n      sload\n      swap1\n      0x0100\n      exp\n      swap1\n      div\n      0xffffffffffffffffffffffffffffffffffffffff\n      and\n        /* \"contracts/Project.sol\":749:770  msg.sender == creator */\n      0xffffffffffffffffffffffffffffffffffffffff\n      and\n        /* \"contracts/Project.sol\":749:759  msg.sender */\n      caller\n        /* \"contracts/Project.sol\":749:770  msg.sender == creator */\n      0xffffffffffffffffffffffffffffffffffffffff\n      and\n      eq\n        /* \"contracts/Project.sol\":741:798  require(msg.sender == creator, \"Not the project creator\") */\n      tag_67\n      jumpi\n      mload(0x40)\n      0x08c379a000000000000000000000000000000000000000000000000000000000\n      dup2\n      mstore\n      0x04\n      add\n      tag_68\n      swap1\n      tag_69\n      jump\t// in\n    tag_68:\n      mload(0x40)\n      dup1\n      swap2\n      sub\n      swap1\n      revert\n    tag_67:\n        /* \"contracts/Project.sol\":893:901  deadline */\n      sload(0x03)\n        /* \"contracts/Project.sol\":874:889  block.timestamp */\n      timestamp\n        /* \"contracts/Project.sol\":874:901  block.timestamp >= deadline */\n      lt\n      iszero\n        /* \"contracts/Project.sol\":866:930  require(block.timestamp >= deadline, \"Project is still ongoing\") */\n      tag_71\n      jumpi\n      mload(0x40)\n      0x08c379a000000000000000000000000000000000000000000000000000000000\n      dup2\n      mstore\n      0x04\n      add\n      tag_72\n      swap1\n      tag_73\n      jump\t// in\n    tag_72:\n      mload(0x40)\n      dup1\n      swap2\n      sub\n      swap1\n      revert\n    tag_71:\n        /* \"contracts/Project.sol\":1781:1804  ProjectState.Successful */\n      0x01\n        /* \"contracts/Project.sol\":1772:1804  state == ProjectState.Successful */\n      0x02\n      dup2\n      gt\n      iszero\n      tag_75\n      jumpi\n      tag_76\n      tag_77\n      jump\t// in\n    tag_76:\n    tag_75:\n        /* \"contracts/Project.sol\":1772:1777  state */\n      0x05\n      0x00\n      swap1\n      sload\n      swap1\n      0x0100\n      exp\n      swap1\n      div\n      0xff\n      and\n        /* \"contracts/Project.sol\":1772:1804  state == ProjectState.Successful */\n      0x02\n      dup2\n      gt\n      iszero\n      tag_78\n      jumpi\n      tag_79\n      tag_77\n      jump\t// in\n    tag_79:\n    tag_78:\n      eq\n        /* \"contracts/Project.sol\":1764:1834  require(state == ProjectState.Successful, \"Project is not successful\") */\n      tag_80\n      jumpi\n      mload(0x40)\n      0x08c379a000000000000000000000000000000000000000000000000000000000\n      dup2\n      mstore\n      0x04\n      add\n      tag_81\n      swap1\n      tag_82\n      jump\t// in\n    tag_81:\n      mload(0x40)\n      dup1\n      swap2\n      sub\n      swap1\n      revert\n    tag_80:\n        /* \"contracts/Project.sol\":1855:1869  uint256 amount */\n      0x00\n        /* \"contracts/Project.sol\":1872:1893  address(this).balance */\n      selfbalance\n        /* \"contracts/Project.sol\":1855:1893  uint256 amount = address(this).balance */\n      swap1\n      pop\n        /* \"contracts/Project.sol\":1912:1919  creator */\n      0x00\n      dup1\n      sload\n      swap1\n      0x0100\n      exp\n      swap1\n      div\n      0xffffffffffffffffffffffffffffffffffffffff\n      and\n        /* \"contracts/Project.sol\":1904:1929  payable(creator).transfer */\n      0xffffffffffffffffffffffffffffffffffffffff\n      and\n        /* \"contracts/Project.sol\":1904:1937  payable(creator).transfer(amount) */\n      0x08fc\n        /* \"contracts/Project.sol\":1930:1936  amount */\n      dup3\n        /* \"contracts/Project.sol\":1904:1937  payable(creator).transfer(amount) */\n      swap1\n      dup2\n      iszero\n      mul\n      swap1\n      mload(0x40)\n      0x00\n      mload(0x40)\n      dup1\n      dup4\n      sub\n      dup2\n      dup6\n      dup9\n      dup9\n      call\n      swap4\n      pop\n      pop\n      pop\n      pop\n      iszero\n      dup1\n      iszero\n      tag_84\n      jumpi\n      returndatasize\n      0x00\n      dup1\n      returndatacopy\n      revert(0x00, returndatasize)\n    tag_84:\n      pop\n        /* \"contracts/Project.sol\":1970:1977  creator */\n      0x00\n      dup1\n      sload\n      swap1\n      0x0100\n      exp\n      swap1\n      div\n      0xffffffffffffffffffffffffffffffffffffffff\n      and\n        /* \"contracts/Project.sol\":1955:1986  FundsWithdrawn(creator, amount) */\n      0xffffffffffffffffffffffffffffffffffffffff\n      and\n      0xeaff4b37086828766ad3268786972c0cd24259d4c87a80f9d3963a3c3d999b0d\n        /* \"contracts/Project.sol\":1979:1985  amount */\n      dup3\n        /* \"contracts/Project.sol\":1955:1986  FundsWithdrawn(creator, amount) */\n      mload(0x40)\n      tag_85\n      swap2\n      swap1\n      tag_27\n      jump\t// in\n    tag_85:\n      mload(0x40)\n      dup1\n      swap2\n      sub\n      swap1\n      log2\n        /* \"contracts/Project.sol\":1753:1994  {... */\n      pop\n        /* \"contracts/Project.sol\":1689:1994  function withdrawFunds() external onlyCreator onlyAfterDeadline {... */\n      jump\t// out\n        /* \"contracts/Project.sol\":284:309  uint256 public goalAmount */\n    tag_25:\n      sload(0x02)\n      dup2\n      jump\t// out\n        /* \"contracts/Project.sol\":316:339  uint256 public deadline */\n    tag_30:\n      sload(0x03)\n      dup2\n      jump\t// out\n        /* \"contracts/Project.sol\":2593:2946  function updateProjectState() external onlyAfterDeadline {... */\n    tag_34:\n        /* \"contracts/Project.sol\":893:901  deadline */\n      sload(0x03)\n        /* \"contracts/Project.sol\":874:889  block.timestamp */\n      timestamp\n        /* \"contracts/Project.sol\":874:901  block.timestamp >= deadline */\n      lt\n      iszero\n        /* \"contracts/Project.sol\":866:930  require(block.timestamp >= deadline, \"Project is still ongoing\") */\n      tag_87\n      jumpi\n      mload(0x40)\n      0x08c379a000000000000000000000000000000000000000000000000000000000\n      dup2\n      mstore\n      0x04\n      add\n      tag_88\n      swap1\n      tag_73\n      jump\t// in\n    tag_88:\n      mload(0x40)\n      dup1\n      swap2\n      sub\n      swap1\n      revert\n    tag_87:\n        /* \"contracts/Project.sol\":2678:2698  ProjectState.Ongoing */\n      0x00\n        /* \"contracts/Project.sol\":2669:2698  state == ProjectState.Ongoing */\n      0x02\n      dup2\n      gt\n      iszero\n      tag_90\n      jumpi\n      tag_91\n      tag_77\n      jump\t// in\n    tag_91:\n    tag_90:\n        /* \"contracts/Project.sol\":2669:2674  state */\n      0x05\n      0x00\n      swap1\n      sload\n      swap1\n      0x0100\n      exp\n      swap1\n      div\n      0xff\n      and\n        /* \"contracts/Project.sol\":2669:2698  state == ProjectState.Ongoing */\n      0x02\n      dup2\n      gt\n      iszero\n      tag_92\n      jumpi\n      tag_93\n      tag_77\n      jump\t// in\n    tag_93:\n    tag_92:\n      eq\n        /* \"contracts/Project.sol\":2661:2731  require(state == ProjectState.Ongoing, \"Project is already finalized\") */\n      tag_94\n      jumpi\n      mload(0x40)\n      0x08c379a000000000000000000000000000000000000000000000000000000000\n      dup2\n      mstore\n      0x04\n      add\n      tag_95\n      swap1\n      tag_96\n      jump\t// in\n    tag_95:\n      mload(0x40)\n      dup1\n      swap2\n      sub\n      swap1\n      revert\n    tag_94:\n        /* \"contracts/Project.sol\":2765:2775  goalAmount */\n      sload(0x02)\n        /* \"contracts/Project.sol\":2748:2761  currentAmount */\n      sload(0x04)\n        /* \"contracts/Project.sol\":2748:2775  currentAmount >= goalAmount */\n      lt\n        /* \"contracts/Project.sol\":2744:2895  if (currentAmount >= goalAmount) {... */\n      tag_97\n      jumpi\n        /* \"contracts/Project.sol\":2800:2823  ProjectState.Successful */\n      0x01\n        /* \"contracts/Project.sol\":2792:2797  state */\n      0x05\n      0x00\n        /* \"contracts/Project.sol\":2792:2823  state = ProjectState.Successful */\n      0x0100\n      exp\n      dup2\n      sload\n      dup2\n      0xff\n      mul\n      not\n      and\n      swap1\n      dup4\n      0x02\n      dup2\n      gt\n      iszero\n      tag_98\n      jumpi\n      tag_99\n      tag_77\n      jump\t// in\n    tag_99:\n    tag_98:\n      mul\n      or\n      swap1\n      sstore\n      pop\n        /* \"contracts/Project.sol\":2744:2895  if (currentAmount >= goalAmount) {... */\n      jump(tag_100)\n    tag_97:\n        /* \"contracts/Project.sol\":2864:2883  ProjectState.Failed */\n      0x02\n        /* \"contracts/Project.sol\":2856:2861  state */\n      0x05\n      0x00\n        /* \"contracts/Project.sol\":2856:2883  state = ProjectState.Failed */\n      0x0100\n      exp\n      dup2\n      sload\n      dup2\n      0xff\n      mul\n      not\n      and\n      swap1\n      dup4\n      0x02\n      dup2\n      gt\n      iszero\n      tag_101\n      jumpi\n      tag_102\n      tag_77\n      jump\t// in\n    tag_102:\n    tag_101:\n      mul\n      or\n      swap1\n      sstore\n      pop\n        /* \"contracts/Project.sol\":2744:2895  if (currentAmount >= goalAmount) {... */\n    tag_100:\n        /* \"contracts/Project.sol\":2912:2938  ProjectStateChanged(state) */\n      0x35bb0cd5f89def7829cadbfe305076fca9a4811f847e3ce1cd4e017651dda4d4\n        /* \"contracts/Project.sol\":2932:2937  state */\n      0x05\n      0x00\n      swap1\n      sload\n      swap1\n      0x0100\n      exp\n      swap1\n      div\n      0xff\n      and\n        /* \"contracts/Project.sol\":2912:2938  ProjectStateChanged(state) */\n      mload(0x40)\n      tag_103\n      swap2\n      swap1\n      tag_47\n      jump\t// in\n    tag_103:\n      mload(0x40)\n      dup1\n      swap2\n      sub\n      swap1\n      log1\n        /* \"contracts/Project.sol\":2593:2946  function updateProjectState() external onlyAfterDeadline {... */\n      jump\t// out\n        /* \"contracts/Project.sol\":2002:2585  function refund() external onlyAfterDeadline {... */\n    tag_37:\n        /* \"contracts/Project.sol\":893:901  deadline */\n      sload(0x03)\n        /* \"contracts/Project.sol\":874:889  block.timestamp */\n      timestamp\n        /* \"contracts/Project.sol\":874:901  block.timestamp >= deadline */\n      lt\n      iszero\n        /* \"contracts/Project.sol\":866:930  require(block.timestamp >= deadline, \"Project is still ongoing\") */\n      tag_105\n      jumpi\n      mload(0x40)\n      0x08c379a000000000000000000000000000000000000000000000000000000000\n      dup2\n      mstore\n      0x04\n      add\n      tag_106\n      swap1\n      tag_73\n      jump\t// in\n    tag_106:\n      mload(0x40)\n      dup1\n      swap2\n      sub\n      swap1\n      revert\n    tag_105:\n        /* \"contracts/Project.sol\":2075:2094  ProjectState.Failed */\n      0x02\n        /* \"contracts/Project.sol\":2066:2094  state == ProjectState.Failed */\n      dup1\n      dup2\n      gt\n      iszero\n      tag_108\n      jumpi\n      tag_109\n      tag_77\n      jump\t// in\n    tag_109:\n    tag_108:\n        /* \"contracts/Project.sol\":2066:2071  state */\n      0x05\n      0x00\n      swap1\n      sload\n      swap1\n      0x0100\n      exp\n      swap1\n      div\n      0xff\n      and\n        /* \"contracts/Project.sol\":2066:2094  state == ProjectState.Failed */\n      0x02\n      dup2\n      gt\n      iszero\n      tag_110\n      jumpi\n      tag_111\n      tag_77\n      jump\t// in\n    tag_111:\n    tag_110:\n      eq\n        /* \"contracts/Project.sol\":2058:2120  require(state == ProjectState.Failed, \"Project is not failed\") */\n      tag_112\n      jumpi\n      mload(0x40)\n      0x08c379a000000000000000000000000000000000000000000000000000000000\n      dup2\n      mstore\n      0x04\n      add\n      tag_113\n      swap1\n      tag_114\n      jump\t// in\n    tag_113:\n      mload(0x40)\n      dup1\n      swap2\n      sub\n      swap1\n      revert\n    tag_112:\n        /* \"contracts/Project.sol\":2133:2152  uint256 totalRefund */\n      0x00\n        /* \"contracts/Project.sol\":2172:2181  uint256 i */\n      dup1\n        /* \"contracts/Project.sol\":2167:2409  for (uint256 i = 0; i < donations.length; i++) {... */\n    tag_115:\n        /* \"contracts/Project.sol\":2191:2200  donations */\n      0x06\n        /* \"contracts/Project.sol\":2191:2207  donations.length */\n      dup1\n      sload\n      swap1\n      pop\n        /* \"contracts/Project.sol\":2187:2188  i */\n      dup2\n        /* \"contracts/Project.sol\":2187:2207  i < donations.length */\n      lt\n        /* \"contracts/Project.sol\":2167:2409  for (uint256 i = 0; i < donations.length; i++) {... */\n      iszero\n      tag_116\n      jumpi\n        /* \"contracts/Project.sol\":2255:2265  msg.sender */\n      caller\n        /* \"contracts/Project.sol\":2233:2265  donations[i].donor == msg.sender */\n      0xffffffffffffffffffffffffffffffffffffffff\n      and\n        /* \"contracts/Project.sol\":2233:2242  donations */\n      0x06\n        /* \"contracts/Project.sol\":2243:2244  i */\n      dup3\n        /* \"contracts/Project.sol\":2233:2245  donations[i] */\n      dup2\n      sload\n      dup2\n      lt\n      tag_118\n      jumpi\n      tag_119\n      tag_120\n      jump\t// in\n    tag_119:\n    tag_118:\n      swap1\n      0x00\n      mstore\n      keccak256(0x00, 0x20)\n      swap1\n      0x02\n      mul\n      add\n        /* \"contracts/Project.sol\":2233:2251  donations[i].donor */\n      0x00\n      add\n      0x00\n      swap1\n      sload\n      swap1\n      0x0100\n      exp\n      swap1\n      div\n      0xffffffffffffffffffffffffffffffffffffffff\n      and\n        /* \"contracts/Project.sol\":2233:2265  donations[i].donor == msg.sender */\n      0xffffffffffffffffffffffffffffffffffffffff\n      and\n      sub\n        /* \"contracts/Project.sol\":2229:2398  if (donations[i].donor == msg.sender) {... */\n      tag_122\n      jumpi\n        /* \"contracts/Project.sol\":2301:2310  donations */\n      0x06\n        /* \"contracts/Project.sol\":2311:2312  i */\n      dup2\n        /* \"contracts/Project.sol\":2301:2313  donations[i] */\n      dup2\n      sload\n      dup2\n      lt\n      tag_123\n      jumpi\n      tag_124\n      tag_120\n      jump\t// in\n    tag_124:\n    tag_123:\n      swap1\n      0x00\n      mstore\n      keccak256(0x00, 0x20)\n      swap1\n      0x02\n      mul\n      add\n        /* \"contracts/Project.sol\":2301:2320  donations[i].amount */\n      0x01\n      add\n      sload\n        /* \"contracts/Project.sol\":2286:2320  totalRefund += donations[i].amount */\n      dup3\n      tag_126\n      swap2\n      swap1\n      tag_127\n      jump\t// in\n    tag_126:\n      swap2\n      pop\n        /* \"contracts/Project.sol\":2361:2362  0 */\n      0x00\n        /* \"contracts/Project.sol\":2339:2348  donations */\n      0x06\n        /* \"contracts/Project.sol\":2349:2350  i */\n      dup3\n        /* \"contracts/Project.sol\":2339:2351  donations[i] */\n      dup2\n      sload\n      dup2\n      lt\n      tag_128\n      jumpi\n      tag_129\n      tag_120\n      jump\t// in\n    tag_129:\n    tag_128:\n      swap1\n      0x00\n      mstore\n      keccak256(0x00, 0x20)\n      swap1\n      0x02\n      mul\n      add\n        /* \"contracts/Project.sol\":2339:2358  donations[i].amount */\n      0x01\n      add\n        /* \"contracts/Project.sol\":2339:2362  donations[i].amount = 0 */\n      dup2\n      swap1\n      sstore\n      pop\n        /* \"contracts/Project.sol\":2229:2398  if (donations[i].donor == msg.sender) {... */\n    tag_122:\n        /* \"contracts/Project.sol\":2209:2212  i++ */\n      dup1\n      dup1\n      0x01\n      add\n      swap2\n      pop\n      pop\n        /* \"contracts/Project.sol\":2167:2409  for (uint256 i = 0; i < donations.length; i++) {... */\n      jump(tag_115)\n    tag_116:\n      pop\n        /* \"contracts/Project.sol\":2443:2444  0 */\n      0x00\n        /* \"contracts/Project.sol\":2429:2440  totalRefund */\n      dup2\n        /* \"contracts/Project.sol\":2429:2444  totalRefund > 0 */\n      gt\n        /* \"contracts/Project.sol\":2421:2467  require(totalRefund > 0, \"No funds to refund\") */\n      tag_131\n      jumpi\n      mload(0x40)\n      0x08c379a000000000000000000000000000000000000000000000000000000000\n      dup2\n      mstore\n      0x04\n      add\n      tag_132\n      swap1\n      tag_133\n      jump\t// in\n    tag_132:\n      mload(0x40)\n      dup1\n      swap2\n      sub\n      swap1\n      revert\n    tag_131:\n        /* \"contracts/Project.sol\":2488:2498  msg.sender */\n      caller\n        /* \"contracts/Project.sol\":2480:2508  payable(msg.sender).transfer */\n      0xffffffffffffffffffffffffffffffffffffffff\n      and\n        /* \"contracts/Project.sol\":2480:2521  payable(msg.sender).transfer(totalRefund) */\n      0x08fc\n        /* \"contracts/Project.sol\":2509:2520  totalRefund */\n      dup3\n        /* \"contracts/Project.sol\":2480:2521  payable(msg.sender).transfer(totalRefund) */\n      swap1\n      dup2\n      iszero\n      mul\n      swap1\n      mload(0x40)\n      0x00\n      mload(0x40)\n      dup1\n      dup4\n      sub\n      dup2\n      dup6\n      dup9\n      dup9\n      call\n      swap4\n      pop\n      pop\n      pop\n      pop\n      iszero\n      dup1\n      iszero\n      tag_135\n      jumpi\n      returndatasize\n      0x00\n      dup1\n      returndatacopy\n      revert(0x00, returndatasize)\n    tag_135:\n      pop\n        /* \"contracts/Project.sol\":2553:2563  msg.sender */\n      caller\n        /* \"contracts/Project.sol\":2539:2577  FundsRefunded(msg.sender, totalRefund) */\n      0xffffffffffffffffffffffffffffffffffffffff\n      and\n      0xbada1a1bf129e41a8af5abe00997bd8a8cb1770cb0cf68314eb4b1d6c4271397\n        /* \"contracts/Project.sol\":2565:2576  totalRefund */\n      dup3\n        /* \"contracts/Project.sol\":2539:2577  FundsRefunded(msg.sender, totalRefund) */\n      mload(0x40)\n      tag_136\n      swap2\n      swap1\n      tag_27\n      jump\t// in\n    tag_136:\n      mload(0x40)\n      dup1\n      swap2\n      sub\n      swap1\n      log2\n        /* \"contracts/Project.sol\":2047:2585  {... */\n      pop\n        /* \"contracts/Project.sol\":2002:2585  function refund() external onlyAfterDeadline {... */\n      jump\t// out\n        /* \"contracts/Project.sol\":252:277  string public description */\n    tag_40:\n      0x01\n      dup1\n      sload\n      tag_137\n      swap1\n      tag_138\n      jump\t// in\n    tag_137:\n      dup1\n      0x1f\n      add\n      0x20\n      dup1\n      swap2\n      div\n      mul\n      0x20\n      add\n      mload(0x40)\n      swap1\n      dup2\n      add\n      0x40\n      mstore\n      dup1\n      swap3\n      swap2\n      swap1\n      dup2\n      dup2\n      mstore\n      0x20\n      add\n      dup3\n      dup1\n      sload\n      tag_139\n      swap1\n      tag_138\n      jump\t// in\n    tag_139:\n      dup1\n      iszero\n      tag_140\n      jumpi\n      dup1\n      0x1f\n      lt\n      tag_141\n      jumpi\n      0x0100\n      dup1\n      dup4\n      sload\n      div\n      mul\n      dup4\n      mstore\n      swap2\n      0x20\n      add\n      swap2\n      jump(tag_140)\n    tag_141:\n      dup3\n      add\n      swap2\n      swap1\n      0x00\n      mstore\n      keccak256(0x00, 0x20)\n      swap1\n    tag_142:\n      dup2\n      sload\n      dup2\n      mstore\n      swap1\n      0x01\n      add\n      swap1\n      0x20\n      add\n      dup1\n      dup4\n      gt\n      tag_142\n      jumpi\n      dup3\n      swap1\n      sub\n      0x1f\n      and\n      dup3\n      add\n      swap2\n    tag_140:\n      pop\n      pop\n      pop\n      pop\n      pop\n      dup2\n      jump\t// out\n        /* \"contracts/Project.sol\":381:406  ProjectState public state */\n    tag_45:\n      0x05\n      0x00\n      swap1\n      sload\n      swap1\n      0x0100\n      exp\n      swap1\n      div\n      0xff\n      and\n      dup2\n      jump\t// out\n        /* \"contracts/Project.sol\":958:1268  function initialize(address _creator, string memory _description, uint256 _goalAmount, uint256 _duration) public {... */\n    tag_52:\n        /* \"contracts/Project.sol\":1092:1100  _creator */\n      dup4\n        /* \"contracts/Project.sol\":1082:1089  creator */\n      0x00\n      dup1\n        /* \"contracts/Project.sol\":1082:1100  creator = _creator */\n      0x0100\n      exp\n      dup2\n      sload\n      dup2\n      0xffffffffffffffffffffffffffffffffffffffff\n      mul\n      not\n      and\n      swap1\n      dup4\n      0xffffffffffffffffffffffffffffffffffffffff\n      and\n      mul\n      or\n      swap1\n      sstore\n      pop\n        /* \"contracts/Project.sol\":1125:1137  _description */\n      dup3\n        /* \"contracts/Project.sol\":1111:1122  description */\n      0x01\n        /* \"contracts/Project.sol\":1111:1137  description = _description */\n      swap1\n      dup2\n      tag_144\n      swap2\n      swap1\n      tag_145\n      jump\t// in\n    tag_144:\n      pop\n        /* \"contracts/Project.sol\":1161:1172  _goalAmount */\n      dup2\n        /* \"contracts/Project.sol\":1148:1158  goalAmount */\n      0x02\n        /* \"contracts/Project.sol\":1148:1172  goalAmount = _goalAmount */\n      dup2\n      swap1\n      sstore\n      pop\n        /* \"contracts/Project.sol\":1212:1221  _duration */\n      dup1\n        /* \"contracts/Project.sol\":1194:1209  block.timestamp */\n      timestamp\n        /* \"contracts/Project.sol\":1194:1221  block.timestamp + _duration */\n      tag_146\n      swap2\n      swap1\n      tag_127\n      jump\t// in\n    tag_146:\n        /* \"contracts/Project.sol\":1183:1191  deadline */\n      0x03\n        /* \"contracts/Project.sol\":1183:1221  deadline = block.timestamp + _duration */\n      dup2\n      swap1\n      sstore\n      pop\n        /* \"contracts/Project.sol\":1240:1260  ProjectState.Ongoing */\n      0x00\n        /* \"contracts/Project.sol\":1232:1237  state */\n      0x05\n      0x00\n        /* \"contracts/Project.sol\":1232:1260  state = ProjectState.Ongoing */\n      0x0100\n      exp\n      dup2\n      sload\n      dup2\n      0xff\n      mul\n      not\n      and\n      swap1\n      dup4\n      0x02\n      dup2\n      gt\n      iszero\n      tag_147\n      jumpi\n      tag_148\n      tag_77\n      jump\t// in\n    tag_148:\n    tag_147:\n      mul\n      or\n      swap1\n      sstore\n      pop\n        /* \"contracts/Project.sol\":958:1268  function initialize(address _creator, string memory _description, uint256 _goalAmount, uint256 _duration) public {... */\n      pop\n      pop\n      pop\n      pop\n      jump\t// out\n        /* \"contracts/Project.sol\":1276:1681  function donate() external payable {... */\n    tag_54:\n        /* \"contracts/Project.sol\":1339:1359  ProjectState.Ongoing */\n      0x00\n        /* \"contracts/Project.sol\":1330:1359  state == ProjectState.Ongoing */\n      0x02\n      dup2\n      gt\n      iszero\n      tag_150\n      jumpi\n      tag_151\n      tag_77\n      jump\t// in\n    tag_151:\n    tag_150:\n        /* \"contracts/Project.sol\":1330:1335  state */\n      0x05\n      0x00\n      swap1\n      sload\n      swap1\n      0x0100\n      exp\n      swap1\n      div\n      0xff\n      and\n        /* \"contracts/Project.sol\":1330:1359  state == ProjectState.Ongoing */\n      0x02\n      dup2\n      gt\n      iszero\n      tag_152\n      jumpi\n      tag_153\n      tag_77\n      jump\t// in\n    tag_153:\n    tag_152:\n      eq\n        /* \"contracts/Project.sol\":1322:1386  require(state == ProjectState.Ongoing, \"Project is not ongoing\") */\n      tag_154\n      jumpi\n      mload(0x40)\n      0x08c379a000000000000000000000000000000000000000000000000000000000\n      dup2\n      mstore\n      0x04\n      add\n      tag_155\n      swap1\n      tag_156\n      jump\t// in\n    tag_155:\n      mload(0x40)\n      dup1\n      swap2\n      sub\n      swap1\n      revert\n    tag_154:\n        /* \"contracts/Project.sol\":1423:1431  deadline */\n      sload(0x03)\n        /* \"contracts/Project.sol\":1405:1420  block.timestamp */\n      timestamp\n        /* \"contracts/Project.sol\":1405:1431  block.timestamp < deadline */\n      lt\n        /* \"contracts/Project.sol\":1397:1463  require(block.timestamp < deadline, \"Project deadline has passed\") */\n      tag_157\n      jumpi\n      mload(0x40)\n      0x08c379a000000000000000000000000000000000000000000000000000000000\n      dup2\n      mstore\n      0x04\n      add\n      tag_158\n      swap1\n      tag_159\n      jump\t// in\n    tag_158:\n      mload(0x40)\n      dup1\n      swap2\n      sub\n      swap1\n      revert\n    tag_157:\n        /* \"contracts/Project.sol\":1476:1485  donations */\n      0x06\n        /* \"contracts/Project.sol\":1491:1576  Donation({... */\n      mload(0x40)\n      dup1\n      0x40\n      add\n      0x40\n      mstore\n      dup1\n        /* \"contracts/Project.sol\":1522:1532  msg.sender */\n      caller\n        /* \"contracts/Project.sol\":1491:1576  Donation({... */\n      0xffffffffffffffffffffffffffffffffffffffff\n      and\n      dup2\n      mstore\n      0x20\n      add\n        /* \"contracts/Project.sol\":1555:1564  msg.value */\n      callvalue\n        /* \"contracts/Project.sol\":1491:1576  Donation({... */\n      dup2\n      mstore\n      pop\n        /* \"contracts/Project.sol\":1476:1577  donations.push(Donation({... */\n      swap1\n      dup1\n      0x01\n      dup2\n      sload\n      add\n      dup1\n      dup3\n      sstore\n      dup1\n      swap2\n      pop\n      pop\n      0x01\n      swap1\n      sub\n      swap1\n      0x00\n      mstore\n      keccak256(0x00, 0x20)\n      swap1\n      0x02\n      mul\n      add\n      0x00\n      swap1\n      swap2\n      swap1\n      swap2\n      swap1\n      swap2\n      pop\n      0x00\n      dup3\n      add\n      mload\n      dup2\n      0x00\n      add\n      exp(0x0100, 0x00)\n      dup2\n      sload\n      dup2\n      0xffffffffffffffffffffffffffffffffffffffff\n      mul\n      not\n      and\n      swap1\n      dup4\n      0xffffffffffffffffffffffffffffffffffffffff\n      and\n      mul\n      or\n      swap1\n      sstore\n      pop\n      0x20\n      dup3\n      add\n      mload\n      dup2\n      0x01\n      add\n      sstore\n      pop\n      pop\n        /* \"contracts/Project.sol\":1607:1616  msg.value */\n      callvalue\n        /* \"contracts/Project.sol\":1590:1603  currentAmount */\n      0x04\n      0x00\n        /* \"contracts/Project.sol\":1590:1616  currentAmount += msg.value */\n      dup3\n      dup3\n      sload\n      tag_161\n      swap2\n      swap1\n      tag_127\n      jump\t// in\n    tag_161:\n      swap3\n      pop\n      pop\n      dup2\n      swap1\n      sstore\n      pop\n        /* \"contracts/Project.sol\":1651:1661  msg.sender */\n      caller\n        /* \"contracts/Project.sol\":1634:1673  DonationReceived(msg.sender, msg.value) */\n      0xffffffffffffffffffffffffffffffffffffffff\n      and\n      0x264f630d9efa0d07053a31163641d9fcc0adafc9d9e76f1c37c2ce3a558d2c52\n        /* \"contracts/Project.sol\":1663:1672  msg.value */\n      callvalue\n        /* \"contracts/Project.sol\":1634:1673  DonationReceived(msg.sender, msg.value) */\n      mload(0x40)\n      tag_162\n      swap2\n      swap1\n      tag_27\n      jump\t// in\n    tag_162:\n      mload(0x40)\n      dup1\n      swap2\n      sub\n      swap1\n      log2\n        /* \"contracts/Project.sol\":1276:1681  function donate() external payable {... */\n      jump\t// out\n        /* \"contracts/Project.sol\":346:374  uint256 public currentAmount */\n    tag_57:\n      sload(0x04)\n      dup2\n      jump\t// out\n        /* \"contracts/Project.sol\":413:440  Donation[] public donations */\n    tag_63:\n      0x06\n      dup2\n      dup2\n      sload\n      dup2\n      lt\n      tag_163\n      jumpi\n      0x00\n      dup1\n      revert\n    tag_163:\n      swap1\n      0x00\n      mstore\n      keccak256(0x00, 0x20)\n      swap1\n      0x02\n      mul\n      add\n      0x00\n      swap2\n      pop\n      swap1\n      pop\n      dup1\n      0x00\n      add\n      0x00\n      swap1\n      sload\n      swap1\n      0x0100\n      exp\n      swap1\n      div\n      0xffffffffffffffffffffffffffffffffffffffff\n      and\n      swap1\n      dup1\n      0x01\n      add\n      sload\n      swap1\n      pop\n      dup3\n      jump\t// out\n        /* \"#utility.yul\":7:133   */\n    tag_165:\n        /* \"#utility.yul\":44:51   */\n      0x00\n        /* \"#utility.yul\":84:126   */\n      0xffffffffffffffffffffffffffffffffffffffff\n        /* \"#utility.yul\":77:82   */\n      dup3\n        /* \"#utility.yul\":73:127   */\n      and\n        /* \"#utility.yul\":62:127   */\n      swap1\n      pop\n        /* \"#utility.yul\":7:133   */\n      swap2\n      swap1\n      pop\n      jump\t// out\n        /* \"#utility.yul\":139:235   */\n    tag_166:\n        /* \"#utility.yul\":176:183   */\n      0x00\n        /* \"#utility.yul\":205:229   */\n      tag_231\n        /* \"#utility.yul\":223:228   */\n      dup3\n        /* \"#utility.yul\":205:229   */\n      tag_165\n      jump\t// in\n    tag_231:\n        /* \"#utility.yul\":194:229   */\n      swap1\n      pop\n        /* \"#utility.yul\":139:235   */\n      swap2\n      swap1\n      pop\n      jump\t// out\n        /* \"#utility.yul\":241:359   */\n    tag_167:\n        /* \"#utility.yul\":328:352   */\n      tag_233\n        /* \"#utility.yul\":346:351   */\n      dup2\n        /* \"#utility.yul\":328:352   */\n      tag_166\n      jump\t// in\n    tag_233:\n        /* \"#utility.yul\":323:326   */\n      dup3\n        /* \"#utility.yul\":316:353   */\n      mstore\n        /* \"#utility.yul\":241:359   */\n      pop\n      pop\n      jump\t// out\n        /* \"#utility.yul\":365:587   */\n    tag_19:\n        /* \"#utility.yul\":458:462   */\n      0x00\n        /* \"#utility.yul\":496:498   */\n      0x20\n        /* \"#utility.yul\":485:494   */\n      dup3\n        /* \"#utility.yul\":481:499   */\n      add\n        /* \"#utility.yul\":473:499   */\n      swap1\n      pop\n        /* \"#utility.yul\":509:580   */\n      tag_235\n        /* \"#utility.yul\":577:578   */\n      0x00\n        /* \"#utility.yul\":566:575   */\n      dup4\n        /* \"#utility.yul\":562:579   */\n      add\n        /* \"#utility.yul\":553:559   */\n      dup5\n        /* \"#utility.yul\":509:580   */\n      tag_167\n      jump\t// in\n    tag_235:\n        /* \"#utility.yul\":365:587   */\n      swap3\n      swap2\n      pop\n      pop\n      jump\t// out\n        /* \"#utility.yul\":593:670   */\n    tag_168:\n        /* \"#utility.yul\":630:637   */\n      0x00\n        /* \"#utility.yul\":659:664   */\n      dup2\n        /* \"#utility.yul\":648:664   */\n      swap1\n      pop\n        /* \"#utility.yul\":593:670   */\n      swap2\n      swap1\n      pop\n      jump\t// out\n        /* \"#utility.yul\":676:794   */\n    tag_169:\n        /* \"#utility.yul\":763:787   */\n      tag_238\n        /* \"#utility.yul\":781:786   */\n      dup2\n        /* \"#utility.yul\":763:787   */\n      tag_168\n      jump\t// in\n    tag_238:\n        /* \"#utility.yul\":758:761   */\n      dup3\n        /* \"#utility.yul\":751:788   */\n      mstore\n        /* \"#utility.yul\":676:794   */\n      pop\n      pop\n      jump\t// out\n        /* \"#utility.yul\":800:1022   */\n    tag_27:\n        /* \"#utility.yul\":893:897   */\n      0x00\n        /* \"#utility.yul\":931:933   */\n      0x20\n        /* \"#utility.yul\":920:929   */\n      dup3\n        /* \"#utility.yul\":916:934   */\n      add\n        /* \"#utility.yul\":908:934   */\n      swap1\n      pop\n        /* \"#utility.yul\":944:1015   */\n      tag_240\n        /* \"#utility.yul\":1012:1013   */\n      0x00\n        /* \"#utility.yul\":1001:1010   */\n      dup4\n        /* \"#utility.yul\":997:1014   */\n      add\n        /* \"#utility.yul\":988:994   */\n      dup5\n        /* \"#utility.yul\":944:1015   */\n      tag_169\n      jump\t// in\n    tag_240:\n        /* \"#utility.yul\":800:1022   */\n      swap3\n      swap2\n      pop\n      pop\n      jump\t// out\n        /* \"#utility.yul\":1028:1127   */\n    tag_170:\n        /* \"#utility.yul\":1080:1086   */\n      0x00\n        /* \"#utility.yul\":1114:1119   */\n      dup2\n        /* \"#utility.yul\":1108:1120   */\n      mload\n        /* \"#utility.yul\":1098:1120   */\n      swap1\n      pop\n        /* \"#utility.yul\":1028:1127   */\n      swap2\n      swap1\n      pop\n      jump\t// out\n        /* \"#utility.yul\":1133:1302   */\n    tag_171:\n        /* \"#utility.yul\":1217:1228   */\n      0x00\n        /* \"#utility.yul\":1251:1257   */\n      dup3\n        /* \"#utility.yul\":1246:1249   */\n      dup3\n        /* \"#utility.yul\":1239:1258   */\n      mstore\n        /* \"#utility.yul\":1291:1295   */\n      0x20\n        /* \"#utility.yul\":1286:1289   */\n      dup3\n        /* \"#utility.yul\":1282:1296   */\n      add\n        /* \"#utility.yul\":1267:1296   */\n      swap1\n      pop\n        /* \"#utility.yul\":1133:1302   */\n      swap3\n      swap2\n      pop\n      pop\n      jump\t// out\n        /* \"#utility.yul\":1308:1447   */\n    tag_172:\n        /* \"#utility.yul\":1397:1403   */\n      dup3\n        /* \"#utility.yul\":1392:1395   */\n      dup2\n        /* \"#utility.yul\":1387:1390   */\n      dup4\n        /* \"#utility.yul\":1381:1404   */\n      mcopy\n        /* \"#utility.yul\":1438:1439   */\n      0x00\n        /* \"#utility.yul\":1429:1435   */\n      dup4\n        /* \"#utility.yul\":1424:1427   */\n      dup4\n        /* \"#utility.yul\":1420:1436   */\n      add\n        /* \"#utility.yul\":1413:1440   */\n      mstore\n        /* \"#utility.yul\":1308:1447   */\n      pop\n      pop\n      pop\n      jump\t// out\n        /* \"#utility.yul\":1453:1555   */\n    tag_173:\n        /* \"#utility.yul\":1494:1500   */\n      0x00\n        /* \"#utility.yul\":1545:1547   */\n      0x1f\n        /* \"#utility.yul\":1541:1548   */\n      not\n        /* \"#utility.yul\":1536:1538   */\n      0x1f\n        /* \"#utility.yul\":1529:1534   */\n      dup4\n        /* \"#utility.yul\":1525:1539   */\n      add\n        /* \"#utility.yul\":1521:1549   */\n      and\n        /* \"#utility.yul\":1511:1549   */\n      swap1\n      pop\n        /* \"#utility.yul\":1453:1555   */\n      swap2\n      swap1\n      pop\n      jump\t// out\n        /* \"#utility.yul\":1561:1938   */\n    tag_174:\n        /* \"#utility.yul\":1649:1652   */\n      0x00\n        /* \"#utility.yul\":1677:1716   */\n      tag_246\n        /* \"#utility.yul\":1710:1715   */\n      dup3\n        /* \"#utility.yul\":1677:1716   */\n      tag_170\n      jump\t// in\n    tag_246:\n        /* \"#utility.yul\":1732:1803   */\n      tag_247\n        /* \"#utility.yul\":1796:1802   */\n      dup2\n        /* \"#utility.yul\":1791:1794   */\n      dup6\n        /* \"#utility.yul\":1732:1803   */\n      tag_171\n      jump\t// in\n    tag_247:\n        /* \"#utility.yul\":1725:1803   */\n      swap4\n      pop\n        /* \"#utility.yul\":1812:1877   */\n      tag_248\n        /* \"#utility.yul\":1870:1876   */\n      dup2\n        /* \"#utility.yul\":1865:1868   */\n      dup6\n        /* \"#utility.yul\":1858:1862   */\n      0x20\n        /* \"#utility.yul\":1851:1856   */\n      dup7\n        /* \"#utility.yul\":1847:1863   */\n      add\n        /* \"#utility.yul\":1812:1877   */\n      tag_172\n      jump\t// in\n    tag_248:\n        /* \"#utility.yul\":1902:1931   */\n      tag_249\n        /* \"#utility.yul\":1924:1930   */\n      dup2\n        /* \"#utility.yul\":1902:1931   */\n      tag_173\n      jump\t// in\n    tag_249:\n        /* \"#utility.yul\":1897:1900   */\n      dup5\n        /* \"#utility.yul\":1893:1932   */\n      add\n        /* \"#utility.yul\":1886:1932   */\n      swap2\n      pop\n        /* \"#utility.yul\":1653:1938   */\n      pop\n        /* \"#utility.yul\":1561:1938   */\n      swap3\n      swap2\n      pop\n      pop\n      jump\t// out\n        /* \"#utility.yul\":1944:2257   */\n    tag_42:\n        /* \"#utility.yul\":2057:2061   */\n      0x00\n        /* \"#utility.yul\":2095:2097   */\n      0x20\n        /* \"#utility.yul\":2084:2093   */\n      dup3\n        /* \"#utility.yul\":2080:2098   */\n      add\n        /* \"#utility.yul\":2072:2098   */\n      swap1\n      pop\n        /* \"#utility.yul\":2144:2153   */\n      dup2\n        /* \"#utility.yul\":2138:2142   */\n      dup2\n        /* \"#utility.yul\":2134:2154   */\n      sub\n        /* \"#utility.yul\":2130:2131   */\n      0x00\n        /* \"#utility.yul\":2119:2128   */\n      dup4\n        /* \"#utility.yul\":2115:2132   */\n      add\n        /* \"#utility.yul\":2108:2155   */\n      mstore\n        /* \"#utility.yul\":2172:2250   */\n      tag_251\n        /* \"#utility.yul\":2245:2249   */\n      dup2\n        /* \"#utility.yul\":2236:2242   */\n      dup5\n        /* \"#utility.yul\":2172:2250   */\n      tag_174\n      jump\t// in\n    tag_251:\n        /* \"#utility.yul\":2164:2250   */\n      swap1\n      pop\n        /* \"#utility.yul\":1944:2257   */\n      swap3\n      swap2\n      pop\n      pop\n      jump\t// out\n        /* \"#utility.yul\":2263:2443   */\n    tag_77:\n        /* \"#utility.yul\":2311:2388   */\n      0x4e487b7100000000000000000000000000000000000000000000000000000000\n        /* \"#utility.yul\":2308:2309   */\n      0x00\n        /* \"#utility.yul\":2301:2389   */\n      mstore\n        /* \"#utility.yul\":2408:2412   */\n      0x21\n        /* \"#utility.yul\":2405:2406   */\n      0x04\n        /* \"#utility.yul\":2398:2413   */\n      mstore\n        /* \"#utility.yul\":2432:2436   */\n      0x24\n        /* \"#utility.yul\":2429:2430   */\n      0x00\n        /* \"#utility.yul\":2422:2437   */\n      revert\n        /* \"#utility.yul\":2449:2571   */\n    tag_175:\n        /* \"#utility.yul\":2539:2540   */\n      0x03\n        /* \"#utility.yul\":2532:2537   */\n      dup2\n        /* \"#utility.yul\":2529:2541   */\n      lt\n        /* \"#utility.yul\":2519:2565   */\n      tag_254\n      jumpi\n        /* \"#utility.yul\":2545:2563   */\n      tag_255\n      tag_77\n      jump\t// in\n    tag_255:\n        /* \"#utility.yul\":2519:2565   */\n    tag_254:\n        /* \"#utility.yul\":2449:2571   */\n      pop\n      jump\t// out\n        /* \"#utility.yul\":2577:2722   */\n    tag_176:\n        /* \"#utility.yul\":2631:2638   */\n      0x00\n        /* \"#utility.yul\":2660:2665   */\n      dup2\n        /* \"#utility.yul\":2649:2665   */\n      swap1\n      pop\n        /* \"#utility.yul\":2666:2716   */\n      tag_257\n        /* \"#utility.yul\":2710:2715   */\n      dup3\n        /* \"#utility.yul\":2666:2716   */\n      tag_175\n      jump\t// in\n    tag_257:\n        /* \"#utility.yul\":2577:2722   */\n      swap2\n      swap1\n      pop\n      jump\t// out\n        /* \"#utility.yul\":2728:2873   */\n    tag_177:\n        /* \"#utility.yul\":2793:2802   */\n      0x00\n        /* \"#utility.yul\":2826:2867   */\n      tag_259\n        /* \"#utility.yul\":2861:2866   */\n      dup3\n        /* \"#utility.yul\":2826:2867   */\n      tag_176\n      jump\t// in\n    tag_259:\n        /* \"#utility.yul\":2813:2867   */\n      swap1\n      pop\n        /* \"#utility.yul\":2728:2873   */\n      swap2\n      swap1\n      pop\n      jump\t// out\n        /* \"#utility.yul\":2879:3040   */\n    tag_178:\n        /* \"#utility.yul\":2981:3033   */\n      tag_261\n        /* \"#utility.yul\":3027:3032   */\n      dup2\n        /* \"#utility.yul\":2981:3033   */\n      tag_177\n      jump\t// in\n    tag_261:\n        /* \"#utility.yul\":2976:2979   */\n      dup3\n        /* \"#utility.yul\":2969:3034   */\n      mstore\n        /* \"#utility.yul\":2879:3040   */\n      pop\n      pop\n      jump\t// out\n        /* \"#utility.yul\":3046:3298   */\n    tag_47:\n        /* \"#utility.yul\":3154:3158   */\n      0x00\n        /* \"#utility.yul\":3192:3194   */\n      0x20\n        /* \"#utility.yul\":3181:3190   */\n      dup3\n        /* \"#utility.yul\":3177:3195   */\n      add\n        /* \"#utility.yul\":3169:3195   */\n      swap1\n      pop\n        /* \"#utility.yul\":3205:3291   */\n      tag_263\n        /* \"#utility.yul\":3288:3289   */\n      0x00\n        /* \"#utility.yul\":3277:3286   */\n      dup4\n        /* \"#utility.yul\":3273:3290   */\n      add\n        /* \"#utility.yul\":3264:3270   */\n      dup5\n        /* \"#utility.yul\":3205:3291   */\n      tag_178\n      jump\t// in\n    tag_263:\n        /* \"#utility.yul\":3046:3298   */\n      swap3\n      swap2\n      pop\n      pop\n      jump\t// out\n        /* \"#utility.yul\":3304:3379   */\n    tag_179:\n        /* \"#utility.yul\":3337:3343   */\n      0x00\n        /* \"#utility.yul\":3370:3372   */\n      0x40\n        /* \"#utility.yul\":3364:3373   */\n      mload\n        /* \"#utility.yul\":3354:3373   */\n      swap1\n      pop\n        /* \"#utility.yul\":3304:3379   */\n      swap1\n      jump\t// out\n        /* \"#utility.yul\":3385:3502   */\n    tag_180:\n        /* \"#utility.yul\":3494:3495   */\n      0x00\n        /* \"#utility.yul\":3491:3492   */\n      dup1\n        /* \"#utility.yul\":3484:3496   */\n      revert\n        /* \"#utility.yul\":3508:3625   */\n    tag_181:\n        /* \"#utility.yul\":3617:3618   */\n      0x00\n        /* \"#utility.yul\":3614:3615   */\n      dup1\n        /* \"#utility.yul\":3607:3619   */\n      revert\n        /* \"#utility.yul\":3631:3753   */\n    tag_182:\n        /* \"#utility.yul\":3704:3728   */\n      tag_268\n        /* \"#utility.yul\":3722:3727   */\n      dup2\n        /* \"#utility.yul\":3704:3728   */\n      tag_166\n      jump\t// in\n    tag_268:\n        /* \"#utility.yul\":3697:3702   */\n      dup2\n        /* \"#utility.yul\":3694:3729   */\n      eq\n        /* \"#utility.yul\":3684:3747   */\n      tag_269\n      jumpi\n        /* \"#utility.yul\":3743:3744   */\n      0x00\n        /* \"#utility.yul\":3740:3741   */\n      dup1\n        /* \"#utility.yul\":3733:3745   */\n      revert\n        /* \"#utility.yul\":3684:3747   */\n    tag_269:\n        /* \"#utility.yul\":3631:3753   */\n      pop\n      jump\t// out\n        /* \"#utility.yul\":3759:3898   */\n    tag_183:\n        /* \"#utility.yul\":3805:3810   */\n      0x00\n        /* \"#utility.yul\":3843:3849   */\n      dup2\n        /* \"#utility.yul\":3830:3850   */\n      calldataload\n        /* \"#utility.yul\":3821:3850   */\n      swap1\n      pop\n        /* \"#utility.yul\":3859:3892   */\n      tag_271\n        /* \"#utility.yul\":3886:3891   */\n      dup2\n        /* \"#utility.yul\":3859:3892   */\n      tag_182\n      jump\t// in\n    tag_271:\n        /* \"#utility.yul\":3759:3898   */\n      swap3\n      swap2\n      pop\n      pop\n      jump\t// out\n        /* \"#utility.yul\":3904:4021   */\n    tag_184:\n        /* \"#utility.yul\":4013:4014   */\n      0x00\n        /* \"#utility.yul\":4010:4011   */\n      dup1\n        /* \"#utility.yul\":4003:4015   */\n      revert\n        /* \"#utility.yul\":4027:4144   */\n    tag_185:\n        /* \"#utility.yul\":4136:4137   */\n      0x00\n        /* \"#utility.yul\":4133:4134   */\n      dup1\n        /* \"#utility.yul\":4126:4138   */\n      revert\n        /* \"#utility.yul\":4150:4330   */\n    tag_186:\n        /* \"#utility.yul\":4198:4275   */\n      0x4e487b7100000000000000000000000000000000000000000000000000000000\n        /* \"#utility.yul\":4195:4196   */\n      0x00\n        /* \"#utility.yul\":4188:4276   */\n      mstore\n        /* \"#utility.yul\":4295:4299   */\n      0x41\n        /* \"#utility.yul\":4292:4293   */\n      0x04\n        /* \"#utility.yul\":4285:4300   */\n      mstore\n        /* \"#utility.yul\":4319:4323   */\n      0x24\n        /* \"#utility.yul\":4316:4317   */\n      0x00\n        /* \"#utility.yul\":4309:4324   */\n      revert\n        /* \"#utility.yul\":4336:4617   */\n    tag_187:\n        /* \"#utility.yul\":4419:4446   */\n      tag_276\n        /* \"#utility.yul\":4441:4445   */\n      dup3\n        /* \"#utility.yul\":4419:4446   */\n      tag_173\n      jump\t// in\n    tag_276:\n        /* \"#utility.yul\":4411:4417   */\n      dup2\n        /* \"#utility.yul\":4407:4447   */\n      add\n        /* \"#utility.yul\":4549:4555   */\n      dup2\n        /* \"#utility.yul\":4537:4547   */\n      dup2\n        /* \"#utility.yul\":4534:4556   */\n      lt\n        /* \"#utility.yul\":4513:4531   */\n      0xffffffffffffffff\n        /* \"#utility.yul\":4501:4511   */\n      dup3\n        /* \"#utility.yul\":4498:4532   */\n      gt\n        /* \"#utility.yul\":4495:4557   */\n      or\n        /* \"#utility.yul\":4492:4580   */\n      iszero\n      tag_277\n      jumpi\n        /* \"#utility.yul\":4560:4578   */\n      tag_278\n      tag_186\n      jump\t// in\n    tag_278:\n        /* \"#utility.yul\":4492:4580   */\n    tag_277:\n        /* \"#utility.yul\":4600:4610   */\n      dup1\n        /* \"#utility.yul\":4596:4598   */\n      0x40\n        /* \"#utility.yul\":4589:4611   */\n      mstore\n        /* \"#utility.yul\":4379:4617   */\n      pop\n        /* \"#utility.yul\":4336:4617   */\n      pop\n      pop\n      jump\t// out\n        /* \"#utility.yul\":4623:4752   */\n    tag_188:\n        /* \"#utility.yul\":4657:4663   */\n      0x00\n        /* \"#utility.yul\":4684:4704   */\n      tag_280\n      tag_179\n      jump\t// in\n    tag_280:\n        /* \"#utility.yul\":4674:4704   */\n      swap1\n      pop\n        /* \"#utility.yul\":4713:4746   */\n      tag_281\n        /* \"#utility.yul\":4741:4745   */\n      dup3\n        /* \"#utility.yul\":4733:4739   */\n      dup3\n        /* \"#utility.yul\":4713:4746   */\n      tag_187\n      jump\t// in\n    tag_281:\n        /* \"#utility.yul\":4623:4752   */\n      swap2\n      swap1\n      pop\n      jump\t// out\n        /* \"#utility.yul\":4758:5066   */\n    tag_189:\n        /* \"#utility.yul\":4820:4824   */\n      0x00\n        /* \"#utility.yul\":4910:4928   */\n      0xffffffffffffffff\n        /* \"#utility.yul\":4902:4908   */\n      dup3\n        /* \"#utility.yul\":4899:4929   */\n      gt\n        /* \"#utility.yul\":4896:4952   */\n      iszero\n      tag_283\n      jumpi\n        /* \"#utility.yul\":4932:4950   */\n      tag_284\n      tag_186\n      jump\t// in\n    tag_284:\n        /* \"#utility.yul\":4896:4952   */\n    tag_283:\n        /* \"#utility.yul\":4970:4999   */\n      tag_285\n        /* \"#utility.yul\":4992:4998   */\n      dup3\n        /* \"#utility.yul\":4970:4999   */\n      tag_173\n      jump\t// in\n    tag_285:\n        /* \"#utility.yul\":4962:4999   */\n      swap1\n      pop\n        /* \"#utility.yul\":5054:5058   */\n      0x20\n        /* \"#utility.yul\":5048:5052   */\n      dup2\n        /* \"#utility.yul\":5044:5059   */\n      add\n        /* \"#utility.yul\":5036:5059   */\n      swap1\n      pop\n        /* \"#utility.yul\":4758:5066   */\n      swap2\n      swap1\n      pop\n      jump\t// out\n        /* \"#utility.yul\":5072:5220   */\n    tag_190:\n        /* \"#utility.yul\":5170:5176   */\n      dup3\n        /* \"#utility.yul\":5165:5168   */\n      dup2\n        /* \"#utility.yul\":5160:5163   */\n      dup4\n        /* \"#utility.yul\":5147:5177   */\n      calldatacopy\n        /* \"#utility.yul\":5211:5212   */\n      0x00\n        /* \"#utility.yul\":5202:5208   */\n      dup4\n        /* \"#utility.yul\":5197:5200   */\n      dup4\n        /* \"#utility.yul\":5193:5209   */\n      add\n        /* \"#utility.yul\":5186:5213   */\n      mstore\n        /* \"#utility.yul\":5072:5220   */\n      pop\n      pop\n      pop\n      jump\t// out\n        /* \"#utility.yul\":5226:5651   */\n    tag_191:\n        /* \"#utility.yul\":5304:5309   */\n      0x00\n        /* \"#utility.yul\":5329:5395   */\n      tag_288\n        /* \"#utility.yul\":5345:5394   */\n      tag_289\n        /* \"#utility.yul\":5387:5393   */\n      dup5\n        /* \"#utility.yul\":5345:5394   */\n      tag_189\n      jump\t// in\n    tag_289:\n        /* \"#utility.yul\":5329:5395   */\n      tag_188\n      jump\t// in\n    tag_288:\n        /* \"#utility.yul\":5320:5395   */\n      swap1\n      pop\n        /* \"#utility.yul\":5418:5424   */\n      dup3\n        /* \"#utility.yul\":5411:5416   */\n      dup2\n        /* \"#utility.yul\":5404:5425   */\n      mstore\n        /* \"#utility.yul\":5456:5460   */\n      0x20\n        /* \"#utility.yul\":5449:5454   */\n      dup2\n        /* \"#utility.yul\":5445:5461   */\n      add\n        /* \"#utility.yul\":5494:5497   */\n      dup5\n        /* \"#utility.yul\":5485:5491   */\n      dup5\n        /* \"#utility.yul\":5480:5483   */\n      dup5\n        /* \"#utility.yul\":5476:5492   */\n      add\n        /* \"#utility.yul\":5473:5498   */\n      gt\n        /* \"#utility.yul\":5470:5582   */\n      iszero\n      tag_290\n      jumpi\n        /* \"#utility.yul\":5501:5580   */\n      tag_291\n      tag_185\n      jump\t// in\n    tag_291:\n        /* \"#utility.yul\":5470:5582   */\n    tag_290:\n        /* \"#utility.yul\":5591:5645   */\n      tag_292\n        /* \"#utility.yul\":5638:5644   */\n      dup5\n        /* \"#utility.yul\":5633:5636   */\n      dup3\n        /* \"#utility.yul\":5628:5631   */\n      dup6\n        /* \"#utility.yul\":5591:5645   */\n      tag_190\n      jump\t// in\n    tag_292:\n        /* \"#utility.yul\":5310:5651   */\n      pop\n        /* \"#utility.yul\":5226:5651   */\n      swap4\n      swap3\n      pop\n      pop\n      pop\n      jump\t// out\n        /* \"#utility.yul\":5671:6011   */\n    tag_192:\n        /* \"#utility.yul\":5727:5732   */\n      0x00\n        /* \"#utility.yul\":5776:5779   */\n      dup3\n        /* \"#utility.yul\":5769:5773   */\n      0x1f\n        /* \"#utility.yul\":5761:5767   */\n      dup4\n        /* \"#utility.yul\":5757:5774   */\n      add\n        /* \"#utility.yul\":5753:5780   */\n      slt\n        /* \"#utility.yul\":5743:5865   */\n      tag_294\n      jumpi\n        /* \"#utility.yul\":5784:5863   */\n      tag_295\n      tag_184\n      jump\t// in\n    tag_295:\n        /* \"#utility.yul\":5743:5865   */\n    tag_294:\n        /* \"#utility.yul\":5901:5907   */\n      dup2\n        /* \"#utility.yul\":5888:5908   */\n      calldataload\n        /* \"#utility.yul\":5926:6005   */\n      tag_296\n        /* \"#utility.yul\":6001:6004   */\n      dup5\n        /* \"#utility.yul\":5993:5999   */\n      dup3\n        /* \"#utility.yul\":5986:5990   */\n      0x20\n        /* \"#utility.yul\":5978:5984   */\n      dup7\n        /* \"#utility.yul\":5974:5991   */\n      add\n        /* \"#utility.yul\":5926:6005   */\n      tag_191\n      jump\t// in\n    tag_296:\n        /* \"#utility.yul\":5917:6005   */\n      swap2\n      pop\n        /* \"#utility.yul\":5733:6011   */\n      pop\n        /* \"#utility.yul\":5671:6011   */\n      swap3\n      swap2\n      pop\n      pop\n      jump\t// out\n        /* \"#utility.yul\":6017:6139   */\n    tag_193:\n        /* \"#utility.yul\":6090:6114   */\n      tag_298\n        /* \"#utility.yul\":6108:6113   */\n      dup2\n        /* \"#utility.yul\":6090:6114   */\n      tag_168\n      jump\t// in\n    tag_298:\n        /* \"#utility.yul\":6083:6088   */\n      dup2\n        /* \"#utility.yul\":6080:6115   */\n      eq\n        /* \"#utility.yul\":6070:6133   */\n      tag_299\n      jumpi\n        /* \"#utility.yul\":6129:6130   */\n      0x00\n        /* \"#utility.yul\":6126:6127   */\n      dup1\n        /* \"#utility.yul\":6119:6131   */\n      revert\n        /* \"#utility.yul\":6070:6133   */\n    tag_299:\n        /* \"#utility.yul\":6017:6139   */\n      pop\n      jump\t// out\n        /* \"#utility.yul\":6145:6284   */\n    tag_194:\n        /* \"#utility.yul\":6191:6196   */\n      0x00\n        /* \"#utility.yul\":6229:6235   */\n      dup2\n        /* \"#utility.yul\":6216:6236   */\n      calldataload\n        /* \"#utility.yul\":6207:6236   */\n      swap1\n      pop\n        /* \"#utility.yul\":6245:6278   */\n      tag_301\n        /* \"#utility.yul\":6272:6277   */\n      dup2\n        /* \"#utility.yul\":6245:6278   */\n      tag_193\n      jump\t// in\n    tag_301:\n        /* \"#utility.yul\":6145:6284   */\n      swap3\n      swap2\n      pop\n      pop\n      jump\t// out\n        /* \"#utility.yul\":6290:7235   */\n    tag_51:\n        /* \"#utility.yul\":6386:6392   */\n      0x00\n        /* \"#utility.yul\":6394:6400   */\n      dup1\n        /* \"#utility.yul\":6402:6408   */\n      0x00\n        /* \"#utility.yul\":6410:6416   */\n      dup1\n        /* \"#utility.yul\":6459:6462   */\n      0x80\n        /* \"#utility.yul\":6447:6456   */\n      dup6\n        /* \"#utility.yul\":6438:6445   */\n      dup8\n        /* \"#utility.yul\":6434:6457   */\n      sub\n        /* \"#utility.yul\":6430:6463   */\n      slt\n        /* \"#utility.yul\":6427:6547   */\n      iszero\n      tag_303\n      jumpi\n        /* \"#utility.yul\":6466:6545   */\n      tag_304\n      tag_180\n      jump\t// in\n    tag_304:\n        /* \"#utility.yul\":6427:6547   */\n    tag_303:\n        /* \"#utility.yul\":6586:6587   */\n      0x00\n        /* \"#utility.yul\":6611:6664   */\n      tag_305\n        /* \"#utility.yul\":6656:6663   */\n      dup8\n        /* \"#utility.yul\":6647:6653   */\n      dup3\n        /* \"#utility.yul\":6636:6645   */\n      dup9\n        /* \"#utility.yul\":6632:6654   */\n      add\n        /* \"#utility.yul\":6611:6664   */\n      tag_183\n      jump\t// in\n    tag_305:\n        /* \"#utility.yul\":6601:6664   */\n      swap5\n      pop\n        /* \"#utility.yul\":6557:6674   */\n      pop\n        /* \"#utility.yul\":6741:6743   */\n      0x20\n        /* \"#utility.yul\":6730:6739   */\n      dup6\n        /* \"#utility.yul\":6726:6744   */\n      add\n        /* \"#utility.yul\":6713:6745   */\n      calldataload\n        /* \"#utility.yul\":6772:6790   */\n      0xffffffffffffffff\n        /* \"#utility.yul\":6764:6770   */\n      dup2\n        /* \"#utility.yul\":6761:6791   */\n      gt\n        /* \"#utility.yul\":6758:6875   */\n      iszero\n      tag_306\n      jumpi\n        /* \"#utility.yul\":6794:6873   */\n      tag_307\n      tag_181\n      jump\t// in\n    tag_307:\n        /* \"#utility.yul\":6758:6875   */\n    tag_306:\n        /* \"#utility.yul\":6899:6962   */\n      tag_308\n        /* \"#utility.yul\":6954:6961   */\n      dup8\n        /* \"#utility.yul\":6945:6951   */\n      dup3\n        /* \"#utility.yul\":6934:6943   */\n      dup9\n        /* \"#utility.yul\":6930:6952   */\n      add\n        /* \"#utility.yul\":6899:6962   */\n      tag_192\n      jump\t// in\n    tag_308:\n        /* \"#utility.yul\":6889:6962   */\n      swap4\n      pop\n        /* \"#utility.yul\":6684:6972   */\n      pop\n        /* \"#utility.yul\":7011:7013   */\n      0x40\n        /* \"#utility.yul\":7037:7090   */\n      tag_309\n        /* \"#utility.yul\":7082:7089   */\n      dup8\n        /* \"#utility.yul\":7073:7079   */\n      dup3\n        /* \"#utility.yul\":7062:7071   */\n      dup9\n        /* \"#utility.yul\":7058:7080   */\n      add\n        /* \"#utility.yul\":7037:7090   */\n      tag_194\n      jump\t// in\n    tag_309:\n        /* \"#utility.yul\":7027:7090   */\n      swap3\n      pop\n        /* \"#utility.yul\":6982:7100   */\n      pop\n        /* \"#utility.yul\":7139:7141   */\n      0x60\n        /* \"#utility.yul\":7165:7218   */\n      tag_310\n        /* \"#utility.yul\":7210:7217   */\n      dup8\n        /* \"#utility.yul\":7201:7207   */\n      dup3\n        /* \"#utility.yul\":7190:7199   */\n      dup9\n        /* \"#utility.yul\":7186:7208   */\n      add\n        /* \"#utility.yul\":7165:7218   */\n      tag_194\n      jump\t// in\n    tag_310:\n        /* \"#utility.yul\":7155:7218   */\n      swap2\n      pop\n        /* \"#utility.yul\":7110:7228   */\n      pop\n        /* \"#utility.yul\":6290:7235   */\n      swap3\n      swap6\n      swap2\n      swap5\n      pop\n      swap3\n      pop\n      jump\t// out\n        /* \"#utility.yul\":7241:7570   */\n    tag_62:\n        /* \"#utility.yul\":7300:7306   */\n      0x00\n        /* \"#utility.yul\":7349:7351   */\n      0x20\n        /* \"#utility.yul\":7337:7346   */\n      dup3\n        /* \"#utility.yul\":7328:7335   */\n      dup5\n        /* \"#utility.yul\":7324:7347   */\n      sub\n        /* \"#utility.yul\":7320:7352   */\n      slt\n        /* \"#utility.yul\":7317:7436   */\n      iszero\n      tag_312\n      jumpi\n        /* \"#utility.yul\":7355:7434   */\n      tag_313\n      tag_180\n      jump\t// in\n    tag_313:\n        /* \"#utility.yul\":7317:7436   */\n    tag_312:\n        /* \"#utility.yul\":7475:7476   */\n      0x00\n        /* \"#utility.yul\":7500:7553   */\n      tag_314\n        /* \"#utility.yul\":7545:7552   */\n      dup5\n        /* \"#utility.yul\":7536:7542   */\n      dup3\n        /* \"#utility.yul\":7525:7534   */\n      dup6\n        /* \"#utility.yul\":7521:7543   */\n      add\n        /* \"#utility.yul\":7500:7553   */\n      tag_194\n      jump\t// in\n    tag_314:\n        /* \"#utility.yul\":7490:7553   */\n      swap2\n      pop\n        /* \"#utility.yul\":7446:7563   */\n      pop\n        /* \"#utility.yul\":7241:7570   */\n      swap3\n      swap2\n      pop\n      pop\n      jump\t// out\n        /* \"#utility.yul\":7576:7908   */\n    tag_65:\n        /* \"#utility.yul\":7697:7701   */\n      0x00\n        /* \"#utility.yul\":7735:7737   */\n      0x40\n        /* \"#utility.yul\":7724:7733   */\n      dup3\n        /* \"#utility.yul\":7720:7738   */\n      add\n        /* \"#utility.yul\":7712:7738   */\n      swap1\n      pop\n        /* \"#utility.yul\":7748:7819   */\n      tag_316\n        /* \"#utility.yul\":7816:7817   */\n      0x00\n        /* \"#utility.yul\":7805:7814   */\n      dup4\n        /* \"#utility.yul\":7801:7818   */\n      add\n        /* \"#utility.yul\":7792:7798   */\n      dup6\n        /* \"#utility.yul\":7748:7819   */\n      tag_167\n      jump\t// in\n    tag_316:\n        /* \"#utility.yul\":7829:7901   */\n      tag_317\n        /* \"#utility.yul\":7897:7899   */\n      0x20\n        /* \"#utility.yul\":7886:7895   */\n      dup4\n        /* \"#utility.yul\":7882:7900   */\n      add\n        /* \"#utility.yul\":7873:7879   */\n      dup5\n        /* \"#utility.yul\":7829:7901   */\n      tag_169\n      jump\t// in\n    tag_317:\n        /* \"#utility.yul\":7576:7908   */\n      swap4\n      swap3\n      pop\n      pop\n      pop\n      jump\t// out\n        /* \"#utility.yul\":7914:8087   */\n    tag_195:\n        /* \"#utility.yul\":8054:8079   */\n      0x4e6f74207468652070726f6a6563742063726561746f72000000000000000000\n        /* \"#utility.yul\":8050:8051   */\n      0x00\n        /* \"#utility.yul\":8042:8048   */\n      dup3\n        /* \"#utility.yul\":8038:8052   */\n      add\n        /* \"#utility.yul\":8031:8080   */\n      mstore\n        /* \"#utility.yul\":7914:8087   */\n      pop\n      jump\t// out\n        /* \"#utility.yul\":8093:8459   */\n    tag_196:\n        /* \"#utility.yul\":8235:8238   */\n      0x00\n        /* \"#utility.yul\":8256:8323   */\n      tag_320\n        /* \"#utility.yul\":8320:8322   */\n      0x17\n        /* \"#utility.yul\":8315:8318   */\n      dup4\n        /* \"#utility.yul\":8256:8323   */\n      tag_171\n      jump\t// in\n    tag_320:\n        /* \"#utility.yul\":8249:8323   */\n      swap2\n      pop\n        /* \"#utility.yul\":8332:8425   */\n      tag_321\n        /* \"#utility.yul\":8421:8424   */\n      dup3\n        /* \"#utility.yul\":8332:8425   */\n      tag_195\n      jump\t// in\n    tag_321:\n        /* \"#utility.yul\":8450:8452   */\n      0x20\n        /* \"#utility.yul\":8445:8448   */\n      dup3\n        /* \"#utility.yul\":8441:8453   */\n      add\n        /* \"#utility.yul\":8434:8453   */\n      swap1\n      pop\n        /* \"#utility.yul\":8093:8459   */\n      swap2\n      swap1\n      pop\n      jump\t// out\n        /* \"#utility.yul\":8465:8884   */\n    tag_69:\n        /* \"#utility.yul\":8631:8635   */\n      0x00\n        /* \"#utility.yul\":8669:8671   */\n      0x20\n        /* \"#utility.yul\":8658:8667   */\n      dup3\n        /* \"#utility.yul\":8654:8672   */\n      add\n        /* \"#utility.yul\":8646:8672   */\n      swap1\n      pop\n        /* \"#utility.yul\":8718:8727   */\n      dup2\n        /* \"#utility.yul\":8712:8716   */\n      dup2\n        /* \"#utility.yul\":8708:8728   */\n      sub\n        /* \"#utility.yul\":8704:8705   */\n      0x00\n        /* \"#utility.yul\":8693:8702   */\n      dup4\n        /* \"#utility.yul\":8689:8706   */\n      add\n        /* \"#utility.yul\":8682:8729   */\n      mstore\n        /* \"#utility.yul\":8746:8877   */\n      tag_323\n        /* \"#utility.yul\":8872:8876   */\n      dup2\n        /* \"#utility.yul\":8746:8877   */\n      tag_196\n      jump\t// in\n    tag_323:\n        /* \"#utility.yul\":8738:8877   */\n      swap1\n      pop\n        /* \"#utility.yul\":8465:8884   */\n      swap2\n      swap1\n      pop\n      jump\t// out\n        /* \"#utility.yul\":8890:9064   */\n    tag_197:\n        /* \"#utility.yul\":9030:9056   */\n      0x50726f6a656374206973207374696c6c206f6e676f696e670000000000000000\n        /* \"#utility.yul\":9026:9027   */\n      0x00\n        /* \"#utility.yul\":9018:9024   */\n      dup3\n        /* \"#utility.yul\":9014:9028   */\n      add\n        /* \"#utility.yul\":9007:9057   */\n      mstore\n        /* \"#utility.yul\":8890:9064   */\n      pop\n      jump\t// out\n        /* \"#utility.yul\":9070:9436   */\n    tag_198:\n        /* \"#utility.yul\":9212:9215   */\n      0x00\n        /* \"#utility.yul\":9233:9300   */\n      tag_326\n        /* \"#utility.yul\":9297:9299   */\n      0x18\n        /* \"#utility.yul\":9292:9295   */\n      dup4\n        /* \"#utility.yul\":9233:9300   */\n      tag_171\n      jump\t// in\n    tag_326:\n        /* \"#utility.yul\":9226:9300   */\n      swap2\n      pop\n        /* \"#utility.yul\":9309:9402   */\n      tag_327\n        /* \"#utility.yul\":9398:9401   */\n      dup3\n        /* \"#utility.yul\":9309:9402   */\n      tag_197\n      jump\t// in\n    tag_327:\n        /* \"#utility.yul\":9427:9429   */\n      0x20\n        /* \"#utility.yul\":9422:9425   */\n      dup3\n        /* \"#utility.yul\":9418:9430   */\n      add\n        /* \"#utility.yul\":9411:9430   */\n      swap1\n      pop\n        /* \"#utility.yul\":9070:9436   */\n      swap2\n      swap1\n      pop\n      jump\t// out\n        /* \"#utility.yul\":9442:9861   */\n    tag_73:\n        /* \"#utility.yul\":9608:9612   */\n      0x00\n        /* \"#utility.yul\":9646:9648   */\n      0x20\n        /* \"#utility.yul\":9635:9644   */\n      dup3\n        /* \"#utility.yul\":9631:9649   */\n      add\n        /* \"#utility.yul\":9623:9649   */\n      swap1\n      pop\n        /* \"#utility.yul\":9695:9704   */\n      dup2\n        /* \"#utility.yul\":9689:9693   */\n      dup2\n        /* \"#utility.yul\":9685:9705   */\n      sub\n        /* \"#utility.yul\":9681:9682   */\n      0x00\n        /* \"#utility.yul\":9670:9679   */\n      dup4\n        /* \"#utility.yul\":9666:9683   */\n      add\n        /* \"#utility.yul\":9659:9706   */\n      mstore\n        /* \"#utility.yul\":9723:9854   */\n      tag_329\n        /* \"#utility.yul\":9849:9853   */\n      dup2\n        /* \"#utility.yul\":9723:9854   */\n      tag_198\n      jump\t// in\n    tag_329:\n        /* \"#utility.yul\":9715:9854   */\n      swap1\n      pop\n        /* \"#utility.yul\":9442:9861   */\n      swap2\n      swap1\n      pop\n      jump\t// out\n        /* \"#utility.yul\":9867:10042   */\n    tag_199:\n        /* \"#utility.yul\":10007:10034   */\n      0x50726f6a656374206973206e6f74207375636365737366756c00000000000000\n        /* \"#utility.yul\":10003:10004   */\n      0x00\n        /* \"#utility.yul\":9995:10001   */\n      dup3\n        /* \"#utility.yul\":9991:10005   */\n      add\n        /* \"#utility.yul\":9984:10035   */\n      mstore\n        /* \"#utility.yul\":9867:10042   */\n      pop\n      jump\t// out\n        /* \"#utility.yul\":10048:10414   */\n    tag_200:\n        /* \"#utility.yul\":10190:10193   */\n      0x00\n        /* \"#utility.yul\":10211:10278   */\n      tag_332\n        /* \"#utility.yul\":10275:10277   */\n      0x19\n        /* \"#utility.yul\":10270:10273   */\n      dup4\n        /* \"#utility.yul\":10211:10278   */\n      tag_171\n      jump\t// in\n    tag_332:\n        /* \"#utility.yul\":10204:10278   */\n      swap2\n      pop\n        /* \"#utility.yul\":10287:10380   */\n      tag_333\n        /* \"#utility.yul\":10376:10379   */\n      dup3\n        /* \"#utility.yul\":10287:10380   */\n      tag_199\n      jump\t// in\n    tag_333:\n        /* \"#utility.yul\":10405:10407   */\n      0x20\n        /* \"#utility.yul\":10400:10403   */\n      dup3\n        /* \"#utility.yul\":10396:10408   */\n      add\n        /* \"#utility.yul\":10389:10408   */\n      swap1\n      pop\n        /* \"#utility.yul\":10048:10414   */\n      swap2\n      swap1\n      pop\n      jump\t// out\n        /* \"#utility.yul\":10420:10839   */\n    tag_82:\n        /* \"#utility.yul\":10586:10590   */\n      0x00\n        /* \"#utility.yul\":10624:10626   */\n      0x20\n        /* \"#utility.yul\":10613:10622   */\n      dup3\n        /* \"#utility.yul\":10609:10627   */\n      add\n        /* \"#utility.yul\":10601:10627   */\n      swap1\n      pop\n        /* \"#utility.yul\":10673:10682   */\n      dup2\n        /* \"#utility.yul\":10667:10671   */\n      dup2\n        /* \"#utility.yul\":10663:10683   */\n      sub\n        /* \"#utility.yul\":10659:10660   */\n      0x00\n        /* \"#utility.yul\":10648:10657   */\n      dup4\n        /* \"#utility.yul\":10644:10661   */\n      add\n        /* \"#utility.yul\":10637:10684   */\n      mstore\n        /* \"#utility.yul\":10701:10832   */\n      tag_335\n        /* \"#utility.yul\":10827:10831   */\n      dup2\n        /* \"#utility.yul\":10701:10832   */\n      tag_200\n      jump\t// in\n    tag_335:\n        /* \"#utility.yul\":10693:10832   */\n      swap1\n      pop\n        /* \"#utility.yul\":10420:10839   */\n      swap2\n      swap1\n      pop\n      jump\t// out\n        /* \"#utility.yul\":10845:11023   */\n    tag_201:\n        /* \"#utility.yul\":10985:11015   */\n      0x50726f6a65637420697320616c72656164792066696e616c697a656400000000\n        /* \"#utility.yul\":10981:10982   */\n      0x00\n        /* \"#utility.yul\":10973:10979   */\n      dup3\n        /* \"#utility.yul\":10969:10983   */\n      add\n        /* \"#utility.yul\":10962:11016   */\n      mstore\n        /* \"#utility.yul\":10845:11023   */\n      pop\n      jump\t// out\n        /* \"#utility.yul\":11029:11395   */\n    tag_202:\n        /* \"#utility.yul\":11171:11174   */\n      0x00\n        /* \"#utility.yul\":11192:11259   */\n      tag_338\n        /* \"#utility.yul\":11256:11258   */\n      0x1c\n        /* \"#utility.yul\":11251:11254   */\n      dup4\n        /* \"#utility.yul\":11192:11259   */\n      tag_171\n      jump\t// in\n    tag_338:\n        /* \"#utility.yul\":11185:11259   */\n      swap2\n      pop\n        /* \"#utility.yul\":11268:11361   */\n      tag_339\n        /* \"#utility.yul\":11357:11360   */\n      dup3\n        /* \"#utility.yul\":11268:11361   */\n      tag_201\n      jump\t// in\n    tag_339:\n        /* \"#utility.yul\":11386:11388   */\n      0x20\n        /* \"#utility.yul\":11381:11384   */\n      dup3\n        /* \"#utility.yul\":11377:11389   */\n      add\n        /* \"#utility.yul\":11370:11389   */\n      swap1\n      pop\n        /* \"#utility.yul\":11029:11395   */\n      swap2\n      swap1\n      pop\n      jump\t// out\n        /* \"#utility.yul\":11401:11820   */\n    tag_96:\n        /* \"#utility.yul\":11567:11571   */\n      0x00\n        /* \"#utility.yul\":11605:11607   */\n      0x20\n        /* \"#utility.yul\":11594:11603   */\n      dup3\n        /* \"#utility.yul\":11590:11608   */\n      add\n        /* \"#utility.yul\":11582:11608   */\n      swap1\n      pop\n        /* \"#utility.yul\":11654:11663   */\n      dup2\n        /* \"#utility.yul\":11648:11652   */\n      dup2\n        /* \"#utility.yul\":11644:11664   */\n      sub\n        /* \"#utility.yul\":11640:11641   */\n      0x00\n        /* \"#utility.yul\":11629:11638   */\n      dup4\n        /* \"#utility.yul\":11625:11642   */\n      add\n        /* \"#utility.yul\":11618:11665   */\n      mstore\n        /* \"#utility.yul\":11682:11813   */\n      tag_341\n        /* \"#utility.yul\":11808:11812   */\n      dup2\n        /* \"#utility.yul\":11682:11813   */\n      tag_202\n      jump\t// in\n    tag_341:\n        /* \"#utility.yul\":11674:11813   */\n      swap1\n      pop\n        /* \"#utility.yul\":11401:11820   */\n      swap2\n      swap1\n      pop\n      jump\t// out\n        /* \"#utility.yul\":11826:11997   */\n    tag_203:\n        /* \"#utility.yul\":11966:11989   */\n      0x50726f6a656374206973206e6f74206661696c65640000000000000000000000\n        /* \"#utility.yul\":11962:11963   */\n      0x00\n        /* \"#utility.yul\":11954:11960   */\n      dup3\n        /* \"#utility.yul\":11950:11964   */\n      add\n        /* \"#utility.yul\":11943:11990   */\n      mstore\n        /* \"#utility.yul\":11826:11997   */\n      pop\n      jump\t// out\n        /* \"#utility.yul\":12003:12369   */\n    tag_204:\n        /* \"#utility.yul\":12145:12148   */\n      0x00\n        /* \"#utility.yul\":12166:12233   */\n      tag_344\n        /* \"#utility.yul\":12230:12232   */\n      0x15\n        /* \"#utility.yul\":12225:12228   */\n      dup4\n        /* \"#utility.yul\":12166:12233   */\n      tag_171\n      jump\t// in\n    tag_344:\n        /* \"#utility.yul\":12159:12233   */\n      swap2\n      pop\n        /* \"#utility.yul\":12242:12335   */\n      tag_345\n        /* \"#utility.yul\":12331:12334   */\n      dup3\n        /* \"#utility.yul\":12242:12335   */\n      tag_203\n      jump\t// in\n    tag_345:\n        /* \"#utility.yul\":12360:12362   */\n      0x20\n        /* \"#utility.yul\":12355:12358   */\n      dup3\n        /* \"#utility.yul\":12351:12363   */\n      add\n        /* \"#utility.yul\":12344:12363   */\n      swap1\n      pop\n        /* \"#utility.yul\":12003:12369   */\n      swap2\n      swap1\n      pop\n      jump\t// out\n        /* \"#utility.yul\":12375:12794   */\n    tag_114:\n        /* \"#utility.yul\":12541:12545   */\n      0x00\n        /* \"#utility.yul\":12579:12581   */\n      0x20\n        /* \"#utility.yul\":12568:12577   */\n      dup3\n        /* \"#utility.yul\":12564:12582   */\n      add\n        /* \"#utility.yul\":12556:12582   */\n      swap1\n      pop\n        /* \"#utility.yul\":12628:12637   */\n      dup2\n        /* \"#utility.yul\":12622:12626   */\n      dup2\n        /* \"#utility.yul\":12618:12638   */\n      sub\n        /* \"#utility.yul\":12614:12615   */\n      0x00\n        /* \"#utility.yul\":12603:12612   */\n      dup4\n        /* \"#utility.yul\":12599:12616   */\n      add\n        /* \"#utility.yul\":12592:12639   */\n      mstore\n        /* \"#utility.yul\":12656:12787   */\n      tag_347\n        /* \"#utility.yul\":12782:12786   */\n      dup2\n        /* \"#utility.yul\":12656:12787   */\n      tag_204\n      jump\t// in\n    tag_347:\n        /* \"#utility.yul\":12648:12787   */\n      swap1\n      pop\n        /* \"#utility.yul\":12375:12794   */\n      swap2\n      swap1\n      pop\n      jump\t// out\n        /* \"#utility.yul\":12800:12980   */\n    tag_120:\n        /* \"#utility.yul\":12848:12925   */\n      0x4e487b7100000000000000000000000000000000000000000000000000000000\n        /* \"#utility.yul\":12845:12846   */\n      0x00\n        /* \"#utility.yul\":12838:12926   */\n      mstore\n        /* \"#utility.yul\":12945:12949   */\n      0x32\n        /* \"#utility.yul\":12942:12943   */\n      0x04\n        /* \"#utility.yul\":12935:12950   */\n      mstore\n        /* \"#utility.yul\":12969:12973   */\n      0x24\n        /* \"#utility.yul\":12966:12967   */\n      0x00\n        /* \"#utility.yul\":12959:12974   */\n      revert\n        /* \"#utility.yul\":12986:13166   */\n    tag_205:\n        /* \"#utility.yul\":13034:13111   */\n      0x4e487b7100000000000000000000000000000000000000000000000000000000\n        /* \"#utility.yul\":13031:13032   */\n      0x00\n        /* \"#utility.yul\":13024:13112   */\n      mstore\n        /* \"#utility.yul\":13131:13135   */\n      0x11\n        /* \"#utility.yul\":13128:13129   */\n      0x04\n        /* \"#utility.yul\":13121:13136   */\n      mstore\n        /* \"#utility.yul\":13155:13159   */\n      0x24\n        /* \"#utility.yul\":13152:13153   */\n      0x00\n        /* \"#utility.yul\":13145:13160   */\n      revert\n        /* \"#utility.yul\":13172:13363   */\n    tag_127:\n        /* \"#utility.yul\":13212:13215   */\n      0x00\n        /* \"#utility.yul\":13231:13251   */\n      tag_351\n        /* \"#utility.yul\":13249:13250   */\n      dup3\n        /* \"#utility.yul\":13231:13251   */\n      tag_168\n      jump\t// in\n    tag_351:\n        /* \"#utility.yul\":13226:13251   */\n      swap2\n      pop\n        /* \"#utility.yul\":13265:13285   */\n      tag_352\n        /* \"#utility.yul\":13283:13284   */\n      dup4\n        /* \"#utility.yul\":13265:13285   */\n      tag_168\n      jump\t// in\n    tag_352:\n        /* \"#utility.yul\":13260:13285   */\n      swap3\n      pop\n        /* \"#utility.yul\":13308:13309   */\n      dup3\n        /* \"#utility.yul\":13305:13306   */\n      dup3\n        /* \"#utility.yul\":13301:13310   */\n      add\n        /* \"#utility.yul\":13294:13310   */\n      swap1\n      pop\n        /* \"#utility.yul\":13329:13332   */\n      dup1\n        /* \"#utility.yul\":13326:13327   */\n      dup3\n        /* \"#utility.yul\":13323:13333   */\n      gt\n        /* \"#utility.yul\":13320:13356   */\n      iszero\n      tag_353\n      jumpi\n        /* \"#utility.yul\":13336:13354   */\n      tag_354\n      tag_205\n      jump\t// in\n    tag_354:\n        /* \"#utility.yul\":13320:13356   */\n    tag_353:\n        /* \"#utility.yul\":13172:13363   */\n      swap3\n      swap2\n      pop\n      pop\n      jump\t// out\n        /* \"#utility.yul\":13369:13537   */\n    tag_206:\n        /* \"#utility.yul\":13509:13529   */\n      0x4e6f2066756e647320746f20726566756e640000000000000000000000000000\n        /* \"#utility.yul\":13505:13506   */\n      0x00\n        /* \"#utility.yul\":13497:13503   */\n      dup3\n        /* \"#utility.yul\":13493:13507   */\n      add\n        /* \"#utility.yul\":13486:13530   */\n      mstore\n        /* \"#utility.yul\":13369:13537   */\n      pop\n      jump\t// out\n        /* \"#utility.yul\":13543:13909   */\n    tag_207:\n        /* \"#utility.yul\":13685:13688   */\n      0x00\n        /* \"#utility.yul\":13706:13773   */\n      tag_357\n        /* \"#utility.yul\":13770:13772   */\n      0x12\n        /* \"#utility.yul\":13765:13768   */\n      dup4\n        /* \"#utility.yul\":13706:13773   */\n      tag_171\n      jump\t// in\n    tag_357:\n        /* \"#utility.yul\":13699:13773   */\n      swap2\n      pop\n        /* \"#utility.yul\":13782:13875   */\n      tag_358\n        /* \"#utility.yul\":13871:13874   */\n      dup3\n        /* \"#utility.yul\":13782:13875   */\n      tag_206\n      jump\t// in\n    tag_358:\n        /* \"#utility.yul\":13900:13902   */\n      0x20\n        /* \"#utility.yul\":13895:13898   */\n      dup3\n        /* \"#utility.yul\":13891:13903   */\n      add\n        /* \"#utility.yul\":13884:13903   */\n      swap1\n      pop\n        /* \"#utility.yul\":13543:13909   */\n      swap2\n      swap1\n      pop\n      jump\t// out\n        /* \"#utility.yul\":13915:14334   */\n    tag_133:\n        /* \"#utility.yul\":14081:14085   */\n      0x00\n        /* \"#utility.yul\":14119:14121   */\n      0x20\n        /* \"#utility.yul\":14108:14117   */\n      dup3\n        /* \"#utility.yul\":14104:14122   */\n      add\n        /* \"#utility.yul\":14096:14122   */\n      swap1\n      pop\n        /* \"#utility.yul\":14168:14177   */\n      dup2\n        /* \"#utility.yul\":14162:14166   */\n      dup2\n        /* \"#utility.yul\":14158:14178   */\n      sub\n        /* \"#utility.yul\":14154:14155   */\n      0x00\n        /* \"#utility.yul\":14143:14152   */\n      dup4\n        /* \"#utility.yul\":14139:14156   */\n      add\n        /* \"#utility.yul\":14132:14179   */\n      mstore\n        /* \"#utility.yul\":14196:14327   */\n      tag_360\n        /* \"#utility.yul\":14322:14326   */\n      dup2\n        /* \"#utility.yul\":14196:14327   */\n      tag_207\n      jump\t// in\n    tag_360:\n        /* \"#utility.yul\":14188:14327   */\n      swap1\n      pop\n        /* \"#utility.yul\":13915:14334   */\n      swap2\n      swap1\n      pop\n      jump\t// out\n        /* \"#utility.yul\":14340:14520   */\n    tag_208:\n        /* \"#utility.yul\":14388:14465   */\n      0x4e487b7100000000000000000000000000000000000000000000000000000000\n        /* \"#utility.yul\":14385:14386   */\n      0x00\n        /* \"#utility.yul\":14378:14466   */\n      mstore\n        /* \"#utility.yul\":14485:14489   */\n      0x22\n        /* \"#utility.yul\":14482:14483   */\n      0x04\n        /* \"#utility.yul\":14475:14490   */\n      mstore\n        /* \"#utility.yul\":14509:14513   */\n      0x24\n        /* \"#utility.yul\":14506:14507   */\n      0x00\n        /* \"#utility.yul\":14499:14514   */\n      revert\n        /* \"#utility.yul\":14526:14846   */\n    tag_138:\n        /* \"#utility.yul\":14570:14576   */\n      0x00\n        /* \"#utility.yul\":14607:14608   */\n      0x02\n        /* \"#utility.yul\":14601:14605   */\n      dup3\n        /* \"#utility.yul\":14597:14609   */\n      div\n        /* \"#utility.yul\":14587:14609   */\n      swap1\n      pop\n        /* \"#utility.yul\":14654:14655   */\n      0x01\n        /* \"#utility.yul\":14648:14652   */\n      dup3\n        /* \"#utility.yul\":14644:14656   */\n      and\n        /* \"#utility.yul\":14675:14693   */\n      dup1\n        /* \"#utility.yul\":14665:14746   */\n      tag_363\n      jumpi\n        /* \"#utility.yul\":14731:14735   */\n      0x7f\n        /* \"#utility.yul\":14723:14729   */\n      dup3\n        /* \"#utility.yul\":14719:14736   */\n      and\n        /* \"#utility.yul\":14709:14736   */\n      swap2\n      pop\n        /* \"#utility.yul\":14665:14746   */\n    tag_363:\n        /* \"#utility.yul\":14793:14795   */\n      0x20\n        /* \"#utility.yul\":14785:14791   */\n      dup3\n        /* \"#utility.yul\":14782:14796   */\n      lt\n        /* \"#utility.yul\":14762:14780   */\n      dup2\n        /* \"#utility.yul\":14759:14797   */\n      sub\n        /* \"#utility.yul\":14756:14840   */\n      tag_364\n      jumpi\n        /* \"#utility.yul\":14812:14830   */\n      tag_365\n      tag_208\n      jump\t// in\n    tag_365:\n        /* \"#utility.yul\":14756:14840   */\n    tag_364:\n        /* \"#utility.yul\":14577:14846   */\n      pop\n        /* \"#utility.yul\":14526:14846   */\n      swap2\n      swap1\n      pop\n      jump\t// out\n        /* \"#utility.yul\":14852:14993   */\n    tag_209:\n        /* \"#utility.yul\":14901:14905   */\n      0x00\n        /* \"#utility.yul\":14924:14927   */\n      dup2\n        /* \"#utility.yul\":14916:14927   */\n      swap1\n      pop\n        /* \"#utility.yul\":14947:14950   */\n      dup2\n        /* \"#utility.yul\":14944:14945   */\n      0x00\n        /* \"#utility.yul\":14937:14951   */\n      mstore\n        /* \"#utility.yul\":14981:14985   */\n      0x20\n        /* \"#utility.yul\":14978:14979   */\n      0x00\n        /* \"#utility.yul\":14968:14986   */\n      keccak256\n        /* \"#utility.yul\":14960:14986   */\n      swap1\n      pop\n        /* \"#utility.yul\":14852:14993   */\n      swap2\n      swap1\n      pop\n      jump\t// out\n        /* \"#utility.yul\":14999:15092   */\n    tag_210:\n        /* \"#utility.yul\":15036:15042   */\n      0x00\n        /* \"#utility.yul\":15083:15085   */\n      0x20\n        /* \"#utility.yul\":15078:15080   */\n      0x1f\n        /* \"#utility.yul\":15071:15076   */\n      dup4\n        /* \"#utility.yul\":15067:15081   */\n      add\n        /* \"#utility.yul\":15063:15086   */\n      div\n        /* \"#utility.yul\":15053:15086   */\n      swap1\n      pop\n        /* \"#utility.yul\":14999:15092   */\n      swap2\n      swap1\n      pop\n      jump\t// out\n        /* \"#utility.yul\":15098:15205   */\n    tag_211:\n        /* \"#utility.yul\":15142:15150   */\n      0x00\n        /* \"#utility.yul\":15192:15197   */\n      dup3\n        /* \"#utility.yul\":15186:15190   */\n      dup3\n        /* \"#utility.yul\":15182:15198   */\n      shl\n        /* \"#utility.yul\":15161:15198   */\n      swap1\n      pop\n        /* \"#utility.yul\":15098:15205   */\n      swap3\n      swap2\n      pop\n      pop\n      jump\t// out\n        /* \"#utility.yul\":15211:15604   */\n    tag_212:\n        /* \"#utility.yul\":15280:15286   */\n      0x00\n        /* \"#utility.yul\":15330:15331   */\n      0x08\n        /* \"#utility.yul\":15318:15328   */\n      dup4\n        /* \"#utility.yul\":15314:15332   */\n      mul\n        /* \"#utility.yul\":15353:15450   */\n      tag_370\n        /* \"#utility.yul\":15383:15449   */\n      0xffffffffffffffffffffffffffffffffffffffffffffffffffffffffffffffff\n        /* \"#utility.yul\":15372:15381   */\n      dup3\n        /* \"#utility.yul\":15353:15450   */\n      tag_211\n      jump\t// in\n    tag_370:\n        /* \"#utility.yul\":15471:15510   */\n      tag_371\n        /* \"#utility.yul\":15501:15509   */\n      dup7\n        /* \"#utility.yul\":15490:15499   */\n      dup4\n        /* \"#utility.yul\":15471:15510   */\n      tag_211\n      jump\t// in\n    tag_371:\n        /* \"#utility.yul\":15459:15510   */\n      swap6\n      pop\n        /* \"#utility.yul\":15543:15547   */\n      dup1\n        /* \"#utility.yul\":15539:15548   */\n      not\n        /* \"#utility.yul\":15532:15537   */\n      dup5\n        /* \"#utility.yul\":15528:15549   */\n      and\n        /* \"#utility.yul\":15519:15549   */\n      swap4\n      pop\n        /* \"#utility.yul\":15592:15596   */\n      dup1\n        /* \"#utility.yul\":15582:15590   */\n      dup7\n        /* \"#utility.yul\":15578:15597   */\n      and\n        /* \"#utility.yul\":15571:15576   */\n      dup5\n        /* \"#utility.yul\":15568:15598   */\n      or\n        /* \"#utility.yul\":15558:15598   */\n      swap3\n      pop\n        /* \"#utility.yul\":15287:15604   */\n      pop\n      pop\n        /* \"#utility.yul\":15211:15604   */\n      swap4\n      swap3\n      pop\n      pop\n      pop\n      jump\t// out\n        /* \"#utility.yul\":15610:15670   */\n    tag_213:\n        /* \"#utility.yul\":15638:15641   */\n      0x00\n        /* \"#utility.yul\":15659:15664   */\n      dup2\n        /* \"#utility.yul\":15652:15664   */\n      swap1\n      pop\n        /* \"#utility.yul\":15610:15670   */\n      swap2\n      swap1\n      pop\n      jump\t// out\n        /* \"#utility.yul\":15676:15818   */\n    tag_214:\n        /* \"#utility.yul\":15726:15735   */\n      0x00\n        /* \"#utility.yul\":15759:15812   */\n      tag_374\n        /* \"#utility.yul\":15777:15811   */\n      tag_375\n        /* \"#utility.yul\":15786:15810   */\n      tag_376\n        /* \"#utility.yul\":15804:15809   */\n      dup5\n        /* \"#utility.yul\":15786:15810   */\n      tag_168\n      jump\t// in\n    tag_376:\n        /* \"#utility.yul\":15777:15811   */\n      tag_213\n      jump\t// in\n    tag_375:\n        /* \"#utility.yul\":15759:15812   */\n      tag_168\n      jump\t// in\n    tag_374:\n        /* \"#utility.yul\":15746:15812   */\n      swap1\n      pop\n        /* \"#utility.yul\":15676:15818   */\n      swap2\n      swap1\n      pop\n      jump\t// out\n        /* \"#utility.yul\":15824:15899   */\n    tag_215:\n        /* \"#utility.yul\":15867:15870   */\n      0x00\n        /* \"#utility.yul\":15888:15893   */\n      dup2\n        /* \"#utility.yul\":15881:15893   */\n      swap1\n      pop\n        /* \"#utility.yul\":15824:15899   */\n      swap2\n      swap1\n      pop\n      jump\t// out\n        /* \"#utility.yul\":15905:16174   */\n    tag_216:\n        /* \"#utility.yul\":16015:16054   */\n      tag_379\n        /* \"#utility.yul\":16046:16053   */\n      dup4\n        /* \"#utility.yul\":16015:16054   */\n      tag_214\n      jump\t// in\n    tag_379:\n        /* \"#utility.yul\":16076:16167   */\n      tag_380\n        /* \"#utility.yul\":16125:16166   */\n      tag_381\n        /* \"#utility.yul\":16149:16165   */\n      dup3\n        /* \"#utility.yul\":16125:16166   */\n      tag_215\n      jump\t// in\n    tag_381:\n        /* \"#utility.yul\":16117:16123   */\n      dup5\n        /* \"#utility.yul\":16110:16114   */\n      dup5\n        /* \"#utility.yul\":16104:16115   */\n      sload\n        /* \"#utility.yul\":16076:16167   */\n      tag_212\n      jump\t// in\n    tag_380:\n        /* \"#utility.yul\":16070:16074   */\n      dup3\n        /* \"#utility.yul\":16063:16168   */\n      sstore\n        /* \"#utility.yul\":15981:16174   */\n      pop\n        /* \"#utility.yul\":15905:16174   */\n      pop\n      pop\n      pop\n      jump\t// out\n        /* \"#utility.yul\":16180:16253   */\n    tag_217:\n        /* \"#utility.yul\":16225:16228   */\n      0x00\n        /* \"#utility.yul\":16180:16253   */\n      swap1\n      jump\t// out\n        /* \"#utility.yul\":16259:16448   */\n    tag_218:\n        /* \"#utility.yul\":16336:16368   */\n      tag_384\n      tag_217\n      jump\t// in\n    tag_384:\n        /* \"#utility.yul\":16377:16442   */\n      tag_385\n        /* \"#utility.yul\":16435:16441   */\n      dup2\n        /* \"#utility.yul\":16427:16433   */\n      dup5\n        /* \"#utility.yul\":16421:16425   */\n      dup5\n        /* \"#utility.yul\":16377:16442   */\n      tag_216\n      jump\t// in\n    tag_385:\n        /* \"#utility.yul\":16312:16448   */\n      pop\n        /* \"#utility.yul\":16259:16448   */\n      pop\n      pop\n      jump\t// out\n        /* \"#utility.yul\":16454:16640   */\n    tag_219:\n        /* \"#utility.yul\":16514:16634   */\n    tag_387:\n        /* \"#utility.yul\":16531:16534   */\n      dup2\n        /* \"#utility.yul\":16524:16529   */\n      dup2\n        /* \"#utility.yul\":16521:16535   */\n      lt\n        /* \"#utility.yul\":16514:16634   */\n      iszero\n      tag_389\n      jumpi\n        /* \"#utility.yul\":16585:16624   */\n      tag_390\n        /* \"#utility.yul\":16622:16623   */\n      0x00\n        /* \"#utility.yul\":16615:16620   */\n      dup3\n        /* \"#utility.yul\":16585:16624   */\n      tag_218\n      jump\t// in\n    tag_390:\n        /* \"#utility.yul\":16558:16559   */\n      0x01\n        /* \"#utility.yul\":16551:16556   */\n      dup2\n        /* \"#utility.yul\":16547:16560   */\n      add\n        /* \"#utility.yul\":16538:16560   */\n      swap1\n      pop\n        /* \"#utility.yul\":16514:16634   */\n      jump(tag_387)\n    tag_389:\n        /* \"#utility.yul\":16454:16640   */\n      pop\n      pop\n      jump\t// out\n        /* \"#utility.yul\":16646:17189   */\n    tag_220:\n        /* \"#utility.yul\":16747:16749   */\n      0x1f\n        /* \"#utility.yul\":16742:16745   */\n      dup3\n        /* \"#utility.yul\":16739:16750   */\n      gt\n        /* \"#utility.yul\":16736:17182   */\n      iszero\n      tag_392\n      jumpi\n        /* \"#utility.yul\":16781:16819   */\n      tag_393\n        /* \"#utility.yul\":16813:16818   */\n      dup2\n        /* \"#utility.yul\":16781:16819   */\n      tag_209\n      jump\t// in\n    tag_393:\n        /* \"#utility.yul\":16865:16894   */\n      tag_394\n        /* \"#utility.yul\":16883:16893   */\n      dup5\n        /* \"#utility.yul\":16865:16894   */\n      tag_210\n      jump\t// in\n    tag_394:\n        /* \"#utility.yul\":16855:16863   */\n      dup2\n        /* \"#utility.yul\":16851:16895   */\n      add\n        /* \"#utility.yul\":17048:17050   */\n      0x20\n        /* \"#utility.yul\":17036:17046   */\n      dup6\n        /* \"#utility.yul\":17033:17051   */\n      lt\n        /* \"#utility.yul\":17030:17079   */\n      iszero\n      tag_395\n      jumpi\n        /* \"#utility.yul\":17069:17077   */\n      dup2\n        /* \"#utility.yul\":17054:17077   */\n      swap1\n      pop\n        /* \"#utility.yul\":17030:17079   */\n    tag_395:\n        /* \"#utility.yul\":17092:17172   */\n      tag_396\n        /* \"#utility.yul\":17148:17170   */\n      tag_397\n        /* \"#utility.yul\":17166:17169   */\n      dup6\n        /* \"#utility.yul\":17148:17170   */\n      tag_210\n      jump\t// in\n    tag_397:\n        /* \"#utility.yul\":17138:17146   */\n      dup4\n        /* \"#utility.yul\":17134:17171   */\n      add\n        /* \"#utility.yul\":17121:17132   */\n      dup3\n        /* \"#utility.yul\":17092:17172   */\n      tag_219\n      jump\t// in\n    tag_396:\n        /* \"#utility.yul\":16751:17182   */\n      pop\n      pop\n        /* \"#utility.yul\":16736:17182   */\n    tag_392:\n        /* \"#utility.yul\":16646:17189   */\n      pop\n      pop\n      pop\n      jump\t// out\n        /* \"#utility.yul\":17195:17312   */\n    tag_221:\n        /* \"#utility.yul\":17249:17257   */\n      0x00\n        /* \"#utility.yul\":17299:17304   */\n      dup3\n        /* \"#utility.yul\":17293:17297   */\n      dup3\n        /* \"#utility.yul\":17289:17305   */\n      shr\n        /* \"#utility.yul\":17268:17305   */\n      swap1\n      pop\n        /* \"#utility.yul\":17195:17312   */\n      swap3\n      swap2\n      pop\n      pop\n      jump\t// out\n        /* \"#utility.yul\":17318:17487   */\n    tag_222:\n        /* \"#utility.yul\":17362:17368   */\n      0x00\n        /* \"#utility.yul\":17395:17446   */\n      tag_400\n        /* \"#utility.yul\":17443:17444   */\n      0x00\n        /* \"#utility.yul\":17439:17445   */\n      not\n        /* \"#utility.yul\":17431:17436   */\n      dup5\n        /* \"#utility.yul\":17428:17429   */\n      0x08\n        /* \"#utility.yul\":17424:17437   */\n      mul\n        /* \"#utility.yul\":17395:17446   */\n      tag_221\n      jump\t// in\n    tag_400:\n        /* \"#utility.yul\":17391:17447   */\n      not\n        /* \"#utility.yul\":17476:17480   */\n      dup1\n        /* \"#utility.yul\":17470:17474   */\n      dup4\n        /* \"#utility.yul\":17466:17481   */\n      and\n        /* \"#utility.yul\":17456:17481   */\n      swap2\n      pop\n        /* \"#utility.yul\":17369:17487   */\n      pop\n        /* \"#utility.yul\":17318:17487   */\n      swap3\n      swap2\n      pop\n      pop\n      jump\t// out\n        /* \"#utility.yul\":17492:17787   */\n    tag_223:\n        /* \"#utility.yul\":17568:17572   */\n      0x00\n        /* \"#utility.yul\":17714:17743   */\n      tag_402\n        /* \"#utility.yul\":17739:17742   */\n      dup4\n        /* \"#utility.yul\":17733:17737   */\n      dup4\n        /* \"#utility.yul\":17714:17743   */\n      tag_222\n      jump\t// in\n    tag_402:\n        /* \"#utility.yul\":17706:17743   */\n      swap2\n      pop\n        /* \"#utility.yul\":17776:17779   */\n      dup3\n        /* \"#utility.yul\":17773:17774   */\n      0x02\n        /* \"#utility.yul\":17769:17780   */\n      mul\n        /* \"#utility.yul\":17763:17767   */\n      dup3\n        /* \"#utility.yul\":17760:17781   */\n      or\n        /* \"#utility.yul\":17752:17781   */\n      swap1\n      pop\n        /* \"#utility.yul\":17492:17787   */\n      swap3\n      swap2\n      pop\n      pop\n      jump\t// out\n        /* \"#utility.yul\":17792:19187   */\n    tag_145:\n        /* \"#utility.yul\":17909:17946   */\n      tag_404\n        /* \"#utility.yul\":17942:17945   */\n      dup3\n        /* \"#utility.yul\":17909:17946   */\n      tag_170\n      jump\t// in\n    tag_404:\n        /* \"#utility.yul\":18011:18029   */\n      0xffffffffffffffff\n        /* \"#utility.yul\":18003:18009   */\n      dup2\n        /* \"#utility.yul\":18000:18030   */\n      gt\n        /* \"#utility.yul\":17997:18053   */\n      iszero\n      tag_405\n      jumpi\n        /* \"#utility.yul\":18033:18051   */\n      tag_406\n      tag_186\n      jump\t// in\n    tag_406:\n        /* \"#utility.yul\":17997:18053   */\n    tag_405:\n        /* \"#utility.yul\":18077:18115   */\n      tag_407\n        /* \"#utility.yul\":18109:18113   */\n      dup3\n        /* \"#utility.yul\":18103:18114   */\n      sload\n        /* \"#utility.yul\":18077:18115   */\n      tag_138\n      jump\t// in\n    tag_407:\n        /* \"#utility.yul\":18162:18229   */\n      tag_408\n        /* \"#utility.yul\":18222:18228   */\n      dup3\n        /* \"#utility.yul\":18214:18220   */\n      dup3\n        /* \"#utility.yul\":18208:18212   */\n      dup6\n        /* \"#utility.yul\":18162:18229   */\n      tag_220\n      jump\t// in\n    tag_408:\n        /* \"#utility.yul\":18256:18257   */\n      0x00\n        /* \"#utility.yul\":18280:18284   */\n      0x20\n        /* \"#utility.yul\":18267:18284   */\n      swap1\n      pop\n        /* \"#utility.yul\":18312:18314   */\n      0x1f\n        /* \"#utility.yul\":18304:18310   */\n      dup4\n        /* \"#utility.yul\":18301:18315   */\n      gt\n        /* \"#utility.yul\":18329:18330   */\n      0x01\n        /* \"#utility.yul\":18324:18942   */\n      dup2\n      eq\n      tag_410\n      jumpi\n        /* \"#utility.yul\":18986:18987   */\n      0x00\n        /* \"#utility.yul\":19003:19009   */\n      dup5\n        /* \"#utility.yul\":19000:19077   */\n      iszero\n      tag_411\n      jumpi\n        /* \"#utility.yul\":19052:19061   */\n      dup3\n        /* \"#utility.yul\":19047:19050   */\n      dup8\n        /* \"#utility.yul\":19043:19062   */\n      add\n        /* \"#utility.yul\":19037:19063   */\n      mload\n        /* \"#utility.yul\":19028:19063   */\n      swap1\n      pop\n        /* \"#utility.yul\":19000:19077   */\n    tag_411:\n        /* \"#utility.yul\":19103:19170   */\n      tag_412\n        /* \"#utility.yul\":19163:19169   */\n      dup6\n        /* \"#utility.yul\":19156:19161   */\n      dup3\n        /* \"#utility.yul\":19103:19170   */\n      tag_223\n      jump\t// in\n    tag_412:\n        /* \"#utility.yul\":19097:19101   */\n      dup7\n        /* \"#utility.yul\":19090:19171   */\n      sstore\n        /* \"#utility.yul\":18959:19181   */\n      pop\n        /* \"#utility.yul\":18294:19181   */\n      jump(tag_409)\n        /* \"#utility.yul\":18324:18942   */\n    tag_410:\n        /* \"#utility.yul\":18376:18380   */\n      0x1f\n        /* \"#utility.yul\":18372:18381   */\n      not\n        /* \"#utility.yul\":18364:18370   */\n      dup5\n        /* \"#utility.yul\":18360:18382   */\n      and\n        /* \"#utility.yul\":18410:18447   */\n      tag_413\n        /* \"#utility.yul\":18442:18446   */\n      dup7\n        /* \"#utility.yul\":18410:18447   */\n      tag_209\n      jump\t// in\n    tag_413:\n        /* \"#utility.yul\":18469:18470   */\n      0x00\n        /* \"#utility.yul\":18483:18691   */\n    tag_414:\n        /* \"#utility.yul\":18497:18504   */\n      dup3\n        /* \"#utility.yul\":18494:18495   */\n      dup2\n        /* \"#utility.yul\":18491:18505   */\n      lt\n        /* \"#utility.yul\":18483:18691   */\n      iszero\n      tag_416\n      jumpi\n        /* \"#utility.yul\":18576:18585   */\n      dup5\n        /* \"#utility.yul\":18571:18574   */\n      dup10\n        /* \"#utility.yul\":18567:18586   */\n      add\n        /* \"#utility.yul\":18561:18587   */\n      mload\n        /* \"#utility.yul\":18553:18559   */\n      dup3\n        /* \"#utility.yul\":18546:18588   */\n      sstore\n        /* \"#utility.yul\":18627:18628   */\n      0x01\n        /* \"#utility.yul\":18619:18625   */\n      dup3\n        /* \"#utility.yul\":18615:18629   */\n      add\n        /* \"#utility.yul\":18605:18629   */\n      swap2\n      pop\n        /* \"#utility.yul\":18674:18676   */\n      0x20\n        /* \"#utility.yul\":18663:18672   */\n      dup6\n        /* \"#utility.yul\":18659:18677   */\n      add\n        /* \"#utility.yul\":18646:18677   */\n      swap5\n      pop\n        /* \"#utility.yul\":18520:18524   */\n      0x20\n        /* \"#utility.yul\":18517:18518   */\n      dup2\n        /* \"#utility.yul\":18513:18525   */\n      add\n        /* \"#utility.yul\":18508:18525   */\n      swap1\n      pop\n        /* \"#utility.yul\":18483:18691   */\n      jump(tag_414)\n    tag_416:\n        /* \"#utility.yul\":18719:18725   */\n      dup7\n        /* \"#utility.yul\":18710:18717   */\n      dup4\n        /* \"#utility.yul\":18707:18726   */\n      lt\n        /* \"#utility.yul\":18704:18883   */\n      iszero\n      tag_417\n      jumpi\n        /* \"#utility.yul\":18777:18786   */\n      dup5\n        /* \"#utility.yul\":18772:18775   */\n      dup10\n        /* \"#utility.yul\":18768:18787   */\n      add\n        /* \"#utility.yul\":18762:18788   */\n      mload\n        /* \"#utility.yul\":18820:18868   */\n      tag_418\n        /* \"#utility.yul\":18862:18866   */\n      0x1f\n        /* \"#utility.yul\":18854:18860   */\n      dup10\n        /* \"#utility.yul\":18850:18867   */\n      and\n        /* \"#utility.yul\":18839:18848   */\n      dup3\n        /* \"#utility.yul\":18820:18868   */\n      tag_222\n      jump\t// in\n    tag_418:\n        /* \"#utility.yul\":18812:18818   */\n      dup4\n        /* \"#utility.yul\":18805:18869   */\n      sstore\n        /* \"#utility.yul\":18727:18883   */\n      pop\n        /* \"#utility.yul\":18704:18883   */\n    tag_417:\n        /* \"#utility.yul\":18929:18930   */\n      0x01\n        /* \"#utility.yul\":18925:18926   */\n      0x02\n        /* \"#utility.yul\":18917:18923   */\n      dup9\n        /* \"#utility.yul\":18913:18927   */\n      mul\n        /* \"#utility.yul\":18909:18931   */\n      add\n        /* \"#utility.yul\":18903:18907   */\n      dup9\n        /* \"#utility.yul\":18896:18932   */\n      sstore\n        /* \"#utility.yul\":18331:18942   */\n      pop\n      pop\n      pop\n        /* \"#utility.yul\":18294:19181   */\n    tag_409:\n      pop\n        /* \"#utility.yul\":17884:19187   */\n      pop\n      pop\n      pop\n        /* \"#utility.yul\":17792:19187   */\n      pop\n      pop\n      jump\t// out\n        /* \"#utility.yul\":19193:19365   */\n    tag_224:\n        /* \"#utility.yul\":19333:19357   */\n      0x50726f6a656374206973206e6f74206f6e676f696e6700000000000000000000\n        /* \"#utility.yul\":19329:19330   */\n      0x00\n        /* \"#utility.yul\":19321:19327   */\n      dup3\n        /* \"#utility.yul\":19317:19331   */\n      add\n        /* \"#utility.yul\":19310:19358   */\n      mstore\n        /* \"#utility.yul\":19193:19365   */\n      pop\n      jump\t// out\n        /* \"#utility.yul\":19371:19737   */\n    tag_225:\n        /* \"#utility.yul\":19513:19516   */\n      0x00\n        /* \"#utility.yul\":19534:19601   */\n      tag_421\n        /* \"#utility.yul\":19598:19600   */\n      0x16\n        /* \"#utility.yul\":19593:19596   */\n      dup4\n        /* \"#utility.yul\":19534:19601   */\n      tag_171\n      jump\t// in\n    tag_421:\n        /* \"#utility.yul\":19527:19601   */\n      swap2\n      pop\n        /* \"#utility.yul\":19610:19703   */\n      tag_422\n        /* \"#utility.yul\":19699:19702   */\n      dup3\n        /* \"#utility.yul\":19610:19703   */\n      tag_224\n      jump\t// in\n    tag_422:\n        /* \"#utility.yul\":19728:19730   */\n      0x20\n        /* \"#utility.yul\":19723:19726   */\n      dup3\n        /* \"#utility.yul\":19719:19731   */\n      add\n        /* \"#utility.yul\":19712:19731   */\n      swap1\n      pop\n        /* \"#utility.yul\":19371:19737   */\n      swap2\n      swap1\n      pop\n      jump\t// out\n        /* \"#utility.yul\":19743:20162   */\n    tag_156:\n        /* \"#utility.yul\":19909:19913   */\n      0x00\n        /* \"#utility.yul\":19947:19949   */\n      0x20\n        /* \"#utility.yul\":19936:19945   */\n      dup3\n        /* \"#utility.yul\":19932:19950   */\n      add\n        /* \"#utility.yul\":19924:19950   */\n      swap1\n      pop\n        /* \"#utility.yul\":19996:20005   */\n      dup2\n        /* \"#utility.yul\":19990:19994   */\n      dup2\n        /* \"#utility.yul\":19986:20006   */\n      sub\n        /* \"#utility.yul\":19982:19983   */\n      0x00\n        /* \"#utility.yul\":19971:19980   */\n      dup4\n        /* \"#utility.yul\":19967:19984   */\n      add\n        /* \"#utility.yul\":19960:20007   */\n      mstore\n        /* \"#utility.yul\":20024:20155   */\n      tag_424\n        /* \"#utility.yul\":20150:20154   */\n      dup2\n        /* \"#utility.yul\":20024:20155   */\n      tag_225\n      jump\t// in\n    tag_424:\n        /* \"#utility.yul\":20016:20155   */\n      swap1\n      pop\n        /* \"#utility.yul\":19743:20162   */\n      swap2\n      swap1\n      pop\n      jump\t// out\n        /* \"#utility.yul\":20168:20345   */\n    tag_226:\n        /* \"#utility.yul\":20308:20337   */\n      0x50726f6a65637420646561646c696e6520686173207061737365640000000000\n        /* \"#utility.yul\":20304:20305   */\n      0x00\n        /* \"#utility.yul\":20296:20302   */\n      dup3\n        /* \"#utility.yul\":20292:20306   */\n      add\n        /* \"#utility.yul\":20285:20338   */\n      mstore\n        /* \"#utility.yul\":20168:20345   */\n      pop\n      jump\t// out\n        /* \"#utility.yul\":20351:20717   */\n    tag_227:\n        /* \"#utility.yul\":20493:20496   */\n      0x00\n        /* \"#utility.yul\":20514:20581   */\n      tag_427\n        /* \"#utility.yul\":20578:20580   */\n      0x1b\n        /* \"#utility.yul\":20573:20576   */\n      dup4\n        /* \"#utility.yul\":20514:20581   */\n      tag_171\n      jump\t// in\n    tag_427:\n        /* \"#utility.yul\":20507:20581   */\n      swap2\n      pop\n        /* \"#utility.yul\":20590:20683   */\n      tag_428\n        /* \"#utility.yul\":20679:20682   */\n      dup3\n        /* \"#utility.yul\":20590:20683   */\n      tag_226\n      jump\t// in\n    tag_428:\n        /* \"#utility.yul\":20708:20710   */\n      0x20\n        /* \"#utility.yul\":20703:20706   */\n      dup3\n        /* \"#utility.yul\":20699:20711   */\n      add\n        /* \"#utility.yul\":20692:20711   */\n      swap1\n      pop\n        /* \"#utility.yul\":20351:20717   */\n      swap2\n      swap1\n      pop\n      jump\t// out\n        /* \"#utility.yul\":20723:21142   */\n    tag_159:\n        /* \"#utility.yul\":20889:20893   */\n      0x00\n        /* \"#utility.yul\":20927:20929   */\n      0x20\n        /* \"#utility.yul\":20916:20925   */\n      dup3\n        /* \"#utility.yul\":20912:20930   */\n      add\n        /* \"#utility.yul\":20904:20930   */\n      swap1\n      pop\n        /* \"#utility.yul\":20976:20985   */\n      dup2\n        /* \"#utility.yul\":20970:20974   */\n      dup2\n        /* \"#utility.yul\":20966:20986   */\n      sub\n        /* \"#utility.yul\":20962:20963   */\n      0x00\n        /* \"#utility.yul\":20951:20960   */\n      dup4\n        /* \"#utility.yul\":20947:20964   */\n      add\n        /* \"#utility.yul\":20940:20987   */\n      mstore\n        /* \"#utility.yul\":21004:21135   */\n      tag_430\n        /* \"#utility.yul\":21130:21134   */\n      dup2\n        /* \"#utility.yul\":21004:21135   */\n      tag_227\n      jump\t// in\n    tag_430:\n        /* \"#utility.yul\":20996:21135   */\n      swap1\n      pop\n        /* \"#utility.yul\":20723:21142   */\n      swap2\n      swap1\n      pop\n      jump\t// out\n\n    auxdata: 0xa2646970667358221220344239b9b3c0914f1df71b2c201bdeb7fea4ce44543f90a4cf40f2816c7fcd1064736f6c634300081a0033\n}\n",
				"bytecode": {
					"linkReferences": {},
					"object": "6080604052348015600e575f80fd5b506116a58061001c5f395ff3fe6080604052600436106100a6575f3560e01c80637284e416116100635780637284e4161461016a578063c19d93fb14610194578063e8668c52146101be578063ed88c68e146101e6578063f441b1c8146101f0578063f8626af81461021a576100a6565b806302d05d3f146100aa57806324600fc3146100d45780632636b945146100ea57806329dcb0cf146101145780633deb33e71461013e578063590e1ae314610154575b5f80fd5b3480156100b5575f80fd5b506100be610257565b6040516100cb9190610c10565b60405180910390f35b3480156100df575f80fd5b506100e861027a565b005b3480156100f5575f80fd5b506100fe610498565b60405161010b9190610c41565b60405180910390f35b34801561011f575f80fd5b5061012861049e565b6040516101359190610c41565b60405180910390f35b348015610149575f80fd5b506101526104a4565b005b34801561015f575f80fd5b50610168610609565b005b348015610175575f80fd5b5061017e610885565b60405161018b9190610cca565b60405180910390f35b34801561019f575f80fd5b506101a8610911565b6040516101b59190610d5d565b60405180910390f35b3480156101c9575f80fd5b506101e460048036038101906101df9190610f07565b610923565b005b6101ee6109ba565b005b3480156101fb575f80fd5b50610204610b7d565b6040516102119190610c41565b60405180910390f35b348015610225575f80fd5b50610240600480360381019061023b9190610f87565b610b83565b60405161024e929190610fb2565b60405180910390f35b5f8054906101000a900473ffffffffffffffffffffffffffffffffffffffff1681565b5f8054906101000a900473ffffffffffffffffffffffffffffffffffffffff1673ffffffffffffffffffffffffffffffffffffffff163373ffffffffffffffffffffffffffffffffffffffff1614610307576040517f08c379a00000000000000000000000000000000000000000000000000000000081526004016102fe90611023565b60405180910390fd5b60035442101561034c576040517f08c379a00000000000000000000000000000000000000000000000000000000081526004016103439061108b565b60405180910390fd5b600160028111156103605761035f610cea565b5b60055f9054906101000a900460ff16600281111561038157610380610cea565b5b146103c1576040517f08c379a00000000000000000000000000000000000000000000000000000000081526004016103b8906110f3565b60405180910390fd5b5f4790505f8054906101000a900473ffffffffffffffffffffffffffffffffffffffff1673ffffffffffffffffffffffffffffffffffffffff166108fc8290811502906040515f60405180830381858888f19350505050158015610427573d5f803e3d5ffd5b505f8054906101000a900473ffffffffffffffffffffffffffffffffffffffff1673ffffffffffffffffffffffffffffffffffffffff167feaff4b37086828766ad3268786972c0cd24259d4c87a80f9d3963a3c3d999b0d8260405161048d9190610c41565b60405180910390a250565b60025481565b60035481565b6003544210156104e9576040517f08c379a00000000000000000000000000000000000000000000000000000000081526004016104e09061108b565b60405180910390fd5b5f60028111156104fc576104fb610cea565b5b60055f9054906101000a900460ff16600281111561051d5761051c610cea565b5b1461055d576040517f08c379a00000000000000000000000000000000000000000000000000000000081526004016105549061115b565b60405180910390fd5b6002546004541061059757600160055f6101000a81548160ff0219169083600281111561058d5761058c610cea565b5b02179055506105c2565b600260055f6101000a81548160ff021916908360028111156105bc576105bb610cea565b5b02179055505b7f35bb0cd5f89def7829cadbfe305076fca9a4811f847e3ce1cd4e017651dda4d460055f9054906101000a900460ff166040516105ff9190610d5d565b60405180910390a1565b60035442101561064e576040517f08c379a00000000000000000000000000000000000000000000000000000000081526004016106459061108b565b60405180910390fd5b60028081111561066157610660610cea565b5b60055f9054906101000a900460ff16600281111561068257610681610cea565b5b146106c2576040517f08c379a00000000000000000000000000000000000000000000000000000000081526004016106b9906111c3565b60405180910390fd5b5f805b6006805490508110156107ad573373ffffffffffffffffffffffffffffffffffffffff16600682815481106106fd576106fc6111e1565b5b905f5260205f2090600202015f015f9054906101000a900473ffffffffffffffffffffffffffffffffffffffff1673ffffffffffffffffffffffffffffffffffffffff16036107a0576006818154811061075a576107596111e1565b5b905f5260205f2090600202016001015482610775919061123b565b91505f6006828154811061078c5761078b6111e1565b5b905f5260205f209060020201600101819055505b80806001019150506106c5565b505f81116107f0576040517f08c379a00000000000000000000000000000000000000000000000000000000081526004016107e7906112b8565b60405180910390fd5b3373ffffffffffffffffffffffffffffffffffffffff166108fc8290811502906040515f60405180830381858888f19350505050158015610833573d5f803e3d5ffd5b503373ffffffffffffffffffffffffffffffffffffffff167fbada1a1bf129e41a8af5abe00997bd8a8cb1770cb0cf68314eb4b1d6c42713978260405161087a9190610c41565b60405180910390a250565b6001805461089290611303565b80601f01602080910402602001604051908101604052809291908181526020018280546108be90611303565b80156109095780601f106108e057610100808354040283529160200191610909565b820191905f5260205f20905b8154815290600101906020018083116108ec57829003601f168201915b505050505081565b60055f9054906101000a900460ff1681565b835f806101000a81548173ffffffffffffffffffffffffffffffffffffffff021916908373ffffffffffffffffffffffffffffffffffffffff160217905550826001908161097191906114d0565b50816002819055508042610985919061123b565b6003819055505f60055f6101000a81548160ff021916908360028111156109af576109ae610cea565b5b021790555050505050565b5f60028111156109cd576109cc610cea565b5b60055f9054906101000a900460ff1660028111156109ee576109ed610cea565b5b14610a2e576040517f08c379a0000000000000000000000000000000000000000000000000000000008152600401610a25906115e9565b60405180910390fd5b6003544210610a72576040517f08c379a0000000000000000000000000000000000000000000000000000000008152600401610a6990611651565b60405180910390fd5b600660405180604001604052803373ffffffffffffffffffffffffffffffffffffffff16815260200134815250908060018154018082558091505060019003905f5260205f2090600202015f909190919091505f820151815f015f6101000a81548173ffffffffffffffffffffffffffffffffffffffff021916908373ffffffffffffffffffffffffffffffffffffffff1602179055506020820151816001015550503460045f828254610b26919061123b565b925050819055503373ffffffffffffffffffffffffffffffffffffffff167f264f630d9efa0d07053a31163641d9fcc0adafc9d9e76f1c37c2ce3a558d2c5234604051610b739190610c41565b60405180910390a2565b60045481565b60068181548110610b92575f80fd5b905f5260205f2090600202015f91509050805f015f9054906101000a900473ffffffffffffffffffffffffffffffffffffffff16908060010154905082565b5f73ffffffffffffffffffffffffffffffffffffffff82169050919050565b5f610bfa82610bd1565b9050919050565b610c0a81610bf0565b82525050565b5f602082019050610c235f830184610c01565b92915050565b5f819050919050565b610c3b81610c29565b82525050565b5f602082019050610c545f830184610c32565b92915050565b5f81519050919050565b5f82825260208201905092915050565b8281835e5f83830152505050565b5f601f19601f8301169050919050565b5f610c9c82610c5a565b610ca68185610c64565b9350610cb6818560208601610c74565b610cbf81610c82565b840191505092915050565b5f6020820190508181035f830152610ce28184610c92565b905092915050565b7f4e487b71000000000000000000000000000000000000000000000000000000005f52602160045260245ffd5b60038110610d2857610d27610cea565b5b50565b5f819050610d3882610d17565b919050565b5f610d4782610d2b565b9050919050565b610d5781610d3d565b82525050565b5f602082019050610d705f830184610d4e565b92915050565b5f604051905090565b5f80fd5b5f80fd5b610d9081610bf0565b8114610d9a575f80fd5b50565b5f81359050610dab81610d87565b92915050565b5f80fd5b5f80fd5b7f4e487b71000000000000000000000000000000000000000000000000000000005f52604160045260245ffd5b610def82610c82565b810181811067ffffffffffffffff82111715610e0e57610e0d610db9565b5b80604052505050565b5f610e20610d76565b9050610e2c8282610de6565b919050565b5f67ffffffffffffffff821115610e4b57610e4a610db9565b5b610e5482610c82565b9050602081019050919050565b828183375f83830152505050565b5f610e81610e7c84610e31565b610e17565b905082815260208101848484011115610e9d57610e9c610db5565b5b610ea8848285610e61565b509392505050565b5f82601f830112610ec457610ec3610db1565b5b8135610ed4848260208601610e6f565b91505092915050565b610ee681610c29565b8114610ef0575f80fd5b50565b5f81359050610f0181610edd565b92915050565b5f805f8060808587031215610f1f57610f1e610d7f565b5b5f610f2c87828801610d9d565b945050602085013567ffffffffffffffff811115610f4d57610f4c610d83565b5b610f5987828801610eb0565b9350506040610f6a87828801610ef3565b9250506060610f7b87828801610ef3565b91505092959194509250565b5f60208284031215610f9c57610f9b610d7f565b5b5f610fa984828501610ef3565b91505092915050565b5f604082019050610fc55f830185610c01565b610fd26020830184610c32565b9392505050565b7f4e6f74207468652070726f6a6563742063726561746f720000000000000000005f82015250565b5f61100d601783610c64565b915061101882610fd9565b602082019050919050565b5f6020820190508181035f83015261103a81611001565b9050919050565b7f50726f6a656374206973207374696c6c206f6e676f696e6700000000000000005f82015250565b5f611075601883610c64565b915061108082611041565b602082019050919050565b5f6020820190508181035f8301526110a281611069565b9050919050565b7f50726f6a656374206973206e6f74207375636365737366756c000000000000005f82015250565b5f6110dd601983610c64565b91506110e8826110a9565b602082019050919050565b5f6020820190508181035f83015261110a816110d1565b9050919050565b7f50726f6a65637420697320616c72656164792066696e616c697a6564000000005f82015250565b5f611145601c83610c64565b915061115082611111565b602082019050919050565b5f6020820190508181035f83015261117281611139565b9050919050565b7f50726f6a656374206973206e6f74206661696c656400000000000000000000005f82015250565b5f6111ad601583610c64565b91506111b882611179565b602082019050919050565b5f6020820190508181035f8301526111da816111a1565b9050919050565b7f4e487b71000000000000000000000000000000000000000000000000000000005f52603260045260245ffd5b7f4e487b71000000000000000000000000000000000000000000000000000000005f52601160045260245ffd5b5f61124582610c29565b915061125083610c29565b92508282019050808211156112685761126761120e565b5b92915050565b7f4e6f2066756e647320746f20726566756e6400000000000000000000000000005f82015250565b5f6112a2601283610c64565b91506112ad8261126e565b602082019050919050565b5f6020820190508181035f8301526112cf81611296565b9050919050565b7f4e487b71000000000000000000000000000000000000000000000000000000005f52602260045260245ffd5b5f600282049050600182168061131a57607f821691505b60208210810361132d5761132c6112d6565b5b50919050565b5f819050815f5260205f209050919050565b5f6020601f8301049050919050565b5f82821b905092915050565b5f6008830261138f7fffffffffffffffffffffffffffffffffffffffffffffffffffffffffffffffff82611354565b6113998683611354565b95508019841693508086168417925050509392505050565b5f819050919050565b5f6113d46113cf6113ca84610c29565b6113b1565b610c29565b9050919050565b5f819050919050565b6113ed836113ba565b6114016113f9826113db565b848454611360565b825550505050565b5f90565b611415611409565b6114208184846113e4565b505050565b5b81811015611443576114385f8261140d565b600181019050611426565b5050565b601f8211156114885761145981611333565b61146284611345565b81016020851015611471578190505b61148561147d85611345565b830182611425565b50505b505050565b5f82821c905092915050565b5f6114a85f198460080261148d565b1980831691505092915050565b5f6114c08383611499565b9150826002028217905092915050565b6114d982610c5a565b67ffffffffffffffff8111156114f2576114f1610db9565b5b6114fc8254611303565b611507828285611447565b5f60209050601f831160018114611538575f8415611526578287015190505b61153085826114b5565b865550611597565b601f19841661154686611333565b5f5b8281101561156d57848901518255600182019150602085019450602081019050611548565b8683101561158a5784890151611586601f891682611499565b8355505b6001600288020188555050505b505050505050565b7f50726f6a656374206973206e6f74206f6e676f696e67000000000000000000005f82015250565b5f6115d3601683610c64565b91506115de8261159f565b602082019050919050565b5f6020820190508181035f830152611600816115c7565b9050919050565b7f50726f6a65637420646561646c696e65206861732070617373656400000000005f82015250565b5f61163b601b83610c64565b915061164682611607565b602082019050919050565b5f6020820190508181035f8301526116688161162f565b905091905056fea2646970667358221220344239b9b3c0914f1df71b2c201bdeb7fea4ce44543f90a4cf40f2816c7fcd1064736f6c634300081a0033",
					"opcodes": "PUSH1 0x80 PUSH1 0x40 MSTORE CALLVALUE DUP1 ISZERO PUSH1 0xE JUMPI PUSH0 DUP1 REVERT JUMPDEST POP PUSH2 0x16A5 DUP1 PUSH2 0x1C PUSH0 CODECOPY PUSH0 RETURN INVALID PUSH1 0x80 PUSH1 0x40 MSTORE PUSH1 0x4 CALLDATASIZE LT PUSH2 0xA6 JUMPI PUSH0 CALLDATALOAD PUSH1 0xE0 SHR DUP1 PUSH4 0x7284E416 GT PUSH2 0x63 JUMPI DUP1 PUSH4 0x7284E416 EQ PUSH2 0x16A JUMPI DUP1 PUSH4 0xC19D93FB EQ PUSH2 0x194 JUMPI DUP1 PUSH4 0xE8668C52 EQ PUSH2 0x1BE JUMPI DUP1 PUSH4 0xED88C68E EQ PUSH2 0x1E6 JUMPI DUP1 PUSH4 0xF441B1C8 EQ PUSH2 0x1F0 JUMPI DUP1 PUSH4 0xF8626AF8 EQ PUSH2 0x21A JUMPI PUSH2 0xA6 JUMP JUMPDEST DUP1 PUSH4 0x2D05D3F EQ PUSH2 0xAA JUMPI DUP1 PUSH4 0x24600FC3 EQ PUSH2 0xD4 JUMPI DUP1 PUSH4 0x2636B945 EQ PUSH2 0xEA JUMPI DUP1 PUSH4 0x29DCB0CF EQ PUSH2 0x114 JUMPI DUP1 PUSH4 0x3DEB33E7 EQ PUSH2 0x13E JUMPI DUP1 PUSH4 0x590E1AE3 EQ PUSH2 0x154 JUMPI JUMPDEST PUSH0 DUP1 REVERT JUMPDEST CALLVALUE DUP1 ISZERO PUSH2 0xB5 JUMPI PUSH0 DUP1 REVERT JUMPDEST POP PUSH2 0xBE PUSH2 0x257 JUMP JUMPDEST PUSH1 0x40 MLOAD PUSH2 0xCB SWAP2 SWAP1 PUSH2 0xC10 JUMP JUMPDEST PUSH1 0x40 MLOAD DUP1 SWAP2 SUB SWAP1 RETURN JUMPDEST CALLVALUE DUP1 ISZERO PUSH2 0xDF JUMPI PUSH0 DUP1 REVERT JUMPDEST POP PUSH2 0xE8 PUSH2 0x27A JUMP JUMPDEST STOP JUMPDEST CALLVALUE DUP1 ISZERO PUSH2 0xF5 JUMPI PUSH0 DUP1 REVERT JUMPDEST POP PUSH2 0xFE PUSH2 0x498 JUMP JUMPDEST PUSH1 0x40 MLOAD PUSH2 0x10B SWAP2 SWAP1 PUSH2 0xC41 JUMP JUMPDEST PUSH1 0x40 MLOAD DUP1 SWAP2 SUB SWAP1 RETURN JUMPDEST CALLVALUE DUP1 ISZERO PUSH2 0x11F JUMPI PUSH0 DUP1 REVERT JUMPDEST POP PUSH2 0x128 PUSH2 0x49E JUMP JUMPDEST PUSH1 0x40 MLOAD PUSH2 0x135 SWAP2 SWAP1 PUSH2 0xC41 JUMP JUMPDEST PUSH1 0x40 MLOAD DUP1 SWAP2 SUB SWAP1 RETURN JUMPDEST CALLVALUE DUP1 ISZERO PUSH2 0x149 JUMPI PUSH0 DUP1 REVERT JUMPDEST POP PUSH2 0x152 PUSH2 0x4A4 JUMP JUMPDEST STOP JUMPDEST CALLVALUE DUP1 ISZERO PUSH2 0x15F JUMPI PUSH0 DUP1 REVERT JUMPDEST POP PUSH2 0x168 PUSH2 0x609 JUMP JUMPDEST STOP JUMPDEST CALLVALUE DUP1 ISZERO PUSH2 0x175 JUMPI PUSH0 DUP1 REVERT JUMPDEST POP PUSH2 0x17E PUSH2 0x885 JUMP JUMPDEST PUSH1 0x40 MLOAD PUSH2 0x18B SWAP2 SWAP1 PUSH2 0xCCA JUMP JUMPDEST PUSH1 0x40 MLOAD DUP1 SWAP2 SUB SWAP1 RETURN JUMPDEST CALLVALUE DUP1 ISZERO PUSH2 0x19F JUMPI PUSH0 DUP1 REVERT JUMPDEST POP PUSH2 0x1A8 PUSH2 0x911 JUMP JUMPDEST PUSH1 0x40 MLOAD PUSH2 0x1B5 SWAP2 SWAP1 PUSH2 0xD5D JUMP JUMPDEST PUSH1 0x40 MLOAD DUP1 SWAP2 SUB SWAP1 RETURN JUMPDEST CALLVALUE DUP1 ISZERO PUSH2 0x1C9 JUMPI PUSH0 DUP1 REVERT JUMPDEST POP PUSH2 0x1E4 PUSH1 0x4 DUP1 CALLDATASIZE SUB DUP2 ADD SWAP1 PUSH2 0x1DF SWAP2 SWAP1 PUSH2 0xF07 JUMP JUMPDEST PUSH2 0x923 JUMP JUMPDEST STOP JUMPDEST PUSH2 0x1EE PUSH2 0x9BA JUMP JUMPDEST STOP JUMPDEST CALLVALUE DUP1 ISZERO PUSH2 0x1FB JUMPI PUSH0 DUP1 REVERT JUMPDEST POP PUSH2 0x204 PUSH2 0xB7D JUMP JUMPDEST PUSH1 0x40 MLOAD PUSH2 0x211 SWAP2 SWAP1 PUSH2 0xC41 JUMP JUMPDEST PUSH1 0x40 MLOAD DUP1 SWAP2 SUB SWAP1 RETURN JUMPDEST CALLVALUE DUP1 ISZERO PUSH2 0x225 JUMPI PUSH0 DUP1 REVERT JUMPDEST POP PUSH2 0x240 PUSH1 0x4 DUP1 CALLDATASIZE SUB DUP2 ADD SWAP1 PUSH2 0x23B SWAP2 SWAP1 PUSH2 0xF87 JUMP JUMPDEST PUSH2 0xB83 JUMP JUMPDEST PUSH1 0x40 MLOAD PUSH2 0x24E SWAP3 SWAP2 SWAP1 PUSH2 0xFB2 JUMP JUMPDEST PUSH1 0x40 MLOAD DUP1 SWAP2 SUB SWAP1 RETURN JUMPDEST PUSH0 DUP1 SLOAD SWAP1 PUSH2 0x100 EXP SWAP1 DIV PUSH20 0xFFFFFFFFFFFFFFFFFFFFFFFFFFFFFFFFFFFFFFFF AND DUP2 JUMP JUMPDEST PUSH0 DUP1 SLOAD SWAP1 PUSH2 0x100 EXP SWAP1 DIV PUSH20 0xFFFFFFFFFFFFFFFFFFFFFFFFFFFFFFFFFFFFFFFF AND PUSH20 0xFFFFFFFFFFFFFFFFFFFFFFFFFFFFFFFFFFFFFFFF AND CALLER PUSH20 0xFFFFFFFFFFFFFFFFFFFFFFFFFFFFFFFFFFFFFFFF AND EQ PUSH2 0x307 JUMPI PUSH1 0x40 MLOAD PUSH32 0x8C379A000000000000000000000000000000000000000000000000000000000 DUP2 MSTORE PUSH1 0x4 ADD PUSH2 0x2FE SWAP1 PUSH2 0x1023 JUMP JUMPDEST PUSH1 0x40 MLOAD DUP1 SWAP2 SUB SWAP1 REVERT JUMPDEST PUSH1 0x3 SLOAD TIMESTAMP LT ISZERO PUSH2 0x34C JUMPI PUSH1 0x40 MLOAD PUSH32 0x8C379A000000000000000000000000000000000000000000000000000000000 DUP2 MSTORE PUSH1 0x4 ADD PUSH2 0x343 SWAP1 PUSH2 0x108B JUMP JUMPDEST PUSH1 0x40 MLOAD DUP1 SWAP2 SUB SWAP1 REVERT JUMPDEST PUSH1 0x1 PUSH1 0x2 DUP2 GT ISZERO PUSH2 0x360 JUMPI PUSH2 0x35F PUSH2 0xCEA JUMP JUMPDEST JUMPDEST PUSH1 0x5 PUSH0 SWAP1 SLOAD SWAP1 PUSH2 0x100 EXP SWAP1 DIV PUSH1 0xFF AND PUSH1 0x2 DUP2 GT ISZERO PUSH2 0x381 JUMPI PUSH2 0x380 PUSH2 0xCEA JUMP JUMPDEST JUMPDEST EQ PUSH2 0x3C1 JUMPI PUSH1 0x40 MLOAD PUSH32 0x8C379A000000000000000000000000000000000000000000000000000000000 DUP2 MSTORE PUSH1 0x4 ADD PUSH2 0x3B8 SWAP1 PUSH2 0x10F3 JUMP JUMPDEST PUSH1 0x40 MLOAD DUP1 SWAP2 SUB SWAP1 REVERT JUMPDEST PUSH0 SELFBALANCE SWAP1 POP PUSH0 DUP1 SLOAD SWAP1 PUSH2 0x100 EXP SWAP1 DIV PUSH20 0xFFFFFFFFFFFFFFFFFFFFFFFFFFFFFFFFFFFFFFFF AND PUSH20 0xFFFFFFFFFFFFFFFFFFFFFFFFFFFFFFFFFFFFFFFF AND PUSH2 0x8FC DUP3 SWAP1 DUP2 ISZERO MUL SWAP1 PUSH1 0x40 MLOAD PUSH0 PUSH1 0x40 MLOAD DUP1 DUP4 SUB DUP2 DUP6 DUP9 DUP9 CALL SWAP4 POP POP POP POP ISZERO DUP1 ISZERO PUSH2 0x427 JUMPI RETURNDATASIZE PUSH0 DUP1 RETURNDATACOPY RETURNDATASIZE PUSH0 REVERT JUMPDEST POP PUSH0 DUP1 SLOAD SWAP1 PUSH2 0x100 EXP SWAP1 DIV PUSH20 0xFFFFFFFFFFFFFFFFFFFFFFFFFFFFFFFFFFFFFFFF AND PUSH20 0xFFFFFFFFFFFFFFFFFFFFFFFFFFFFFFFFFFFFFFFF AND PUSH32 0xEAFF4B37086828766AD3268786972C0CD24259D4C87A80F9D3963A3C3D999B0D DUP3 PUSH1 0x40 MLOAD PUSH2 0x48D SWAP2 SWAP1 PUSH2 0xC41 JUMP JUMPDEST PUSH1 0x40 MLOAD DUP1 SWAP2 SUB SWAP1 LOG2 POP JUMP JUMPDEST PUSH1 0x2 SLOAD DUP2 JUMP JUMPDEST PUSH1 0x3 SLOAD DUP2 JUMP JUMPDEST PUSH1 0x3 SLOAD TIMESTAMP LT ISZERO PUSH2 0x4E9 JUMPI PUSH1 0x40 MLOAD PUSH32 0x8C379A000000000000000000000000000000000000000000000000000000000 DUP2 MSTORE PUSH1 0x4 ADD PUSH2 0x4E0 SWAP1 PUSH2 0x108B JUMP JUMPDEST PUSH1 0x40 MLOAD DUP1 SWAP2 SUB SWAP1 REVERT JUMPDEST PUSH0 PUSH1 0x2 DUP2 GT ISZERO PUSH2 0x4FC JUMPI PUSH2 0x4FB PUSH2 0xCEA JUMP JUMPDEST JUMPDEST PUSH1 0x5 PUSH0 SWAP1 SLOAD SWAP1 PUSH2 0x100 EXP SWAP1 DIV PUSH1 0xFF AND PUSH1 0x2 DUP2 GT ISZERO PUSH2 0x51D JUMPI PUSH2 0x51C PUSH2 0xCEA JUMP JUMPDEST JUMPDEST EQ PUSH2 0x55D JUMPI PUSH1 0x40 MLOAD PUSH32 0x8C379A000000000000000000000000000000000000000000000000000000000 DUP2 MSTORE PUSH1 0x4 ADD PUSH2 0x554 SWAP1 PUSH2 0x115B JUMP JUMPDEST PUSH1 0x40 MLOAD DUP1 SWAP2 SUB SWAP1 REVERT JUMPDEST PUSH1 0x2 SLOAD PUSH1 0x4 SLOAD LT PUSH2 0x597 JUMPI PUSH1 0x1 PUSH1 0x5 PUSH0 PUSH2 0x100 EXP DUP2 SLOAD DUP2 PUSH1 0xFF MUL NOT AND SWAP1 DUP4 PUSH1 0x2 DUP2 GT ISZERO PUSH2 0x58D JUMPI PUSH2 0x58C PUSH2 0xCEA JUMP JUMPDEST JUMPDEST MUL OR SWAP1 SSTORE POP PUSH2 0x5C2 JUMP JUMPDEST PUSH1 0x2 PUSH1 0x5 PUSH0 PUSH2 0x100 EXP DUP2 SLOAD DUP2 PUSH1 0xFF MUL NOT AND SWAP1 DUP4 PUSH1 0x2 DUP2 GT ISZERO PUSH2 0x5BC JUMPI PUSH2 0x5BB PUSH2 0xCEA JUMP JUMPDEST JUMPDEST MUL OR SWAP1 SSTORE POP JUMPDEST PUSH32 0x35BB0CD5F89DEF7829CADBFE305076FCA9A4811F847E3CE1CD4E017651DDA4D4 PUSH1 0x5 PUSH0 SWAP1 SLOAD SWAP1 PUSH2 0x100 EXP SWAP1 DIV PUSH1 0xFF AND PUSH1 0x40 MLOAD PUSH2 0x5FF SWAP2 SWAP1 PUSH2 0xD5D JUMP JUMPDEST PUSH1 0x40 MLOAD DUP1 SWAP2 SUB SWAP1 LOG1 JUMP JUMPDEST PUSH1 0x3 SLOAD TIMESTAMP LT ISZERO PUSH2 0x64E JUMPI PUSH1 0x40 MLOAD PUSH32 0x8C379A000000000000000000000000000000000000000000000000000000000 DUP2 MSTORE PUSH1 0x4 ADD PUSH2 0x645 SWAP1 PUSH2 0x108B JUMP JUMPDEST PUSH1 0x40 MLOAD DUP1 SWAP2 SUB SWAP1 REVERT JUMPDEST PUSH1 0x2 DUP1 DUP2 GT ISZERO PUSH2 0x661 JUMPI PUSH2 0x660 PUSH2 0xCEA JUMP JUMPDEST JUMPDEST PUSH1 0x5 PUSH0 SWAP1 SLOAD SWAP1 PUSH2 0x100 EXP SWAP1 DIV PUSH1 0xFF AND PUSH1 0x2 DUP2 GT ISZERO PUSH2 0x682 JUMPI PUSH2 0x681 PUSH2 0xCEA JUMP JUMPDEST JUMPDEST EQ PUSH2 0x6C2 JUMPI PUSH1 0x40 MLOAD PUSH32 0x8C379A000000000000000000000000000000000000000000000000000000000 DUP2 MSTORE PUSH1 0x4 ADD PUSH2 0x6B9 SWAP1 PUSH2 0x11C3 JUMP JUMPDEST PUSH1 0x40 MLOAD DUP1 SWAP2 SUB SWAP1 REVERT JUMPDEST PUSH0 DUP1 JUMPDEST PUSH1 0x6 DUP1 SLOAD SWAP1 POP DUP2 LT ISZERO PUSH2 0x7AD JUMPI CALLER PUSH20 0xFFFFFFFFFFFFFFFFFFFFFFFFFFFFFFFFFFFFFFFF AND PUSH1 0x6 DUP3 DUP2 SLOAD DUP2 LT PUSH2 0x6FD JUMPI PUSH2 0x6FC PUSH2 0x11E1 JUMP JUMPDEST JUMPDEST SWAP1 PUSH0 MSTORE PUSH1 0x20 PUSH0 KECCAK256 SWAP1 PUSH1 0x2 MUL ADD PUSH0 ADD PUSH0 SWAP1 SLOAD SWAP1 PUSH2 0x100 EXP SWAP1 DIV PUSH20 0xFFFFFFFFFFFFFFFFFFFFFFFFFFFFFFFFFFFFFFFF AND PUSH20 0xFFFFFFFFFFFFFFFFFFFFFFFFFFFFFFFFFFFFFFFF AND SUB PUSH2 0x7A0 JUMPI PUSH1 0x6 DUP2 DUP2 SLOAD DUP2 LT PUSH2 0x75A JUMPI PUSH2 0x759 PUSH2 0x11E1 JUMP JUMPDEST JUMPDEST SWAP1 PUSH0 MSTORE PUSH1 0x20 PUSH0 KECCAK256 SWAP1 PUSH1 0x2 MUL ADD PUSH1 0x1 ADD SLOAD DUP3 PUSH2 0x775 SWAP2 SWAP1 PUSH2 0x123B JUMP JUMPDEST SWAP2 POP PUSH0 PUSH1 0x6 DUP3 DUP2 SLOAD DUP2 LT PUSH2 0x78C JUMPI PUSH2 0x78B PUSH2 0x11E1 JUMP JUMPDEST JUMPDEST SWAP1 PUSH0 MSTORE PUSH1 0x20 PUSH0 KECCAK256 SWAP1 PUSH1 0x2 MUL ADD PUSH1 0x1 ADD DUP2 SWAP1 SSTORE POP JUMPDEST DUP1 DUP1 PUSH1 0x1 ADD SWAP2 POP POP PUSH2 0x6C5 JUMP JUMPDEST POP PUSH0 DUP2 GT PUSH2 0x7F0 JUMPI PUSH1 0x40 MLOAD PUSH32 0x8C379A000000000000000000000000000000000000000000000000000000000 DUP2 MSTORE PUSH1 0x4 ADD PUSH2 0x7E7 SWAP1 PUSH2 0x12B8 JUMP JUMPDEST PUSH1 0x40 MLOAD DUP1 SWAP2 SUB SWAP1 REVERT JUMPDEST CALLER PUSH20 0xFFFFFFFFFFFFFFFFFFFFFFFFFFFFFFFFFFFFFFFF AND PUSH2 0x8FC DUP3 SWAP1 DUP2 ISZERO MUL SWAP1 PUSH1 0x40 MLOAD PUSH0 PUSH1 0x40 MLOAD DUP1 DUP4 SUB DUP2 DUP6 DUP9 DUP9 CALL SWAP4 POP POP POP POP ISZERO DUP1 ISZERO PUSH2 0x833 JUMPI RETURNDATASIZE PUSH0 DUP1 RETURNDATACOPY RETURNDATASIZE PUSH0 REVERT JUMPDEST POP CALLER PUSH20 0xFFFFFFFFFFFFFFFFFFFFFFFFFFFFFFFFFFFFFFFF AND PUSH32 0xBADA1A1BF129E41A8AF5ABE00997BD8A8CB1770CB0CF68314EB4B1D6C4271397 DUP3 PUSH1 0x40 MLOAD PUSH2 0x87A SWAP2 SWAP1 PUSH2 0xC41 JUMP JUMPDEST PUSH1 0x40 MLOAD DUP1 SWAP2 SUB SWAP1 LOG2 POP JUMP JUMPDEST PUSH1 0x1 DUP1 SLOAD PUSH2 0x892 SWAP1 PUSH2 0x1303 JUMP JUMPDEST DUP1 PUSH1 0x1F ADD PUSH1 0x20 DUP1 SWAP2 DIV MUL PUSH1 0x20 ADD PUSH1 0x40 MLOAD SWAP1 DUP2 ADD PUSH1 0x40 MSTORE DUP1 SWAP3 SWAP2 SWAP1 DUP2 DUP2 MSTORE PUSH1 0x20 ADD DUP3 DUP1 SLOAD PUSH2 0x8BE SWAP1 PUSH2 0x1303 JUMP JUMPDEST DUP1 ISZERO PUSH2 0x909 JUMPI DUP1 PUSH1 0x1F LT PUSH2 0x8E0 JUMPI PUSH2 0x100 DUP1 DUP4 SLOAD DIV MUL DUP4 MSTORE SWAP2 PUSH1 0x20 ADD SWAP2 PUSH2 0x909 JUMP JUMPDEST DUP3 ADD SWAP2 SWAP1 PUSH0 MSTORE PUSH1 0x20 PUSH0 KECCAK256 SWAP1 JUMPDEST DUP2 SLOAD DUP2 MSTORE SWAP1 PUSH1 0x1 ADD SWAP1 PUSH1 0x20 ADD DUP1 DUP4 GT PUSH2 0x8EC JUMPI DUP3 SWAP1 SUB PUSH1 0x1F AND DUP3 ADD SWAP2 JUMPDEST POP POP POP POP POP DUP2 JUMP JUMPDEST PUSH1 0x5 PUSH0 SWAP1 SLOAD SWAP1 PUSH2 0x100 EXP SWAP1 DIV PUSH1 0xFF AND DUP2 JUMP JUMPDEST DUP4 PUSH0 DUP1 PUSH2 0x100 EXP DUP2 SLOAD DUP2 PUSH20 0xFFFFFFFFFFFFFFFFFFFFFFFFFFFFFFFFFFFFFFFF MUL NOT AND SWAP1 DUP4 PUSH20 0xFFFFFFFFFFFFFFFFFFFFFFFFFFFFFFFFFFFFFFFF AND MUL OR SWAP1 SSTORE POP DUP3 PUSH1 0x1 SWAP1 DUP2 PUSH2 0x971 SWAP2 SWAP1 PUSH2 0x14D0 JUMP JUMPDEST POP DUP2 PUSH1 0x2 DUP2 SWAP1 SSTORE POP DUP1 TIMESTAMP PUSH2 0x985 SWAP2 SWAP1 PUSH2 0x123B JUMP JUMPDEST PUSH1 0x3 DUP2 SWAP1 SSTORE POP PUSH0 PUSH1 0x5 PUSH0 PUSH2 0x100 EXP DUP2 SLOAD DUP2 PUSH1 0xFF MUL NOT AND SWAP1 DUP4 PUSH1 0x2 DUP2 GT ISZERO PUSH2 0x9AF JUMPI PUSH2 0x9AE PUSH2 0xCEA JUMP JUMPDEST JUMPDEST MUL OR SWAP1 SSTORE POP POP POP POP POP JUMP JUMPDEST PUSH0 PUSH1 0x2 DUP2 GT ISZERO PUSH2 0x9CD JUMPI PUSH2 0x9CC PUSH2 0xCEA JUMP JUMPDEST JUMPDEST PUSH1 0x5 PUSH0 SWAP1 SLOAD SWAP1 PUSH2 0x100 EXP SWAP1 DIV PUSH1 0xFF AND PUSH1 0x2 DUP2 GT ISZERO PUSH2 0x9EE JUMPI PUSH2 0x9ED PUSH2 0xCEA JUMP JUMPDEST JUMPDEST EQ PUSH2 0xA2E JUMPI PUSH1 0x40 MLOAD PUSH32 0x8C379A000000000000000000000000000000000000000000000000000000000 DUP2 MSTORE PUSH1 0x4 ADD PUSH2 0xA25 SWAP1 PUSH2 0x15E9 JUMP JUMPDEST PUSH1 0x40 MLOAD DUP1 SWAP2 SUB SWAP1 REVERT JUMPDEST PUSH1 0x3 SLOAD TIMESTAMP LT PUSH2 0xA72 JUMPI PUSH1 0x40 MLOAD PUSH32 0x8C379A000000000000000000000000000000000000000000000000000000000 DUP2 MSTORE PUSH1 0x4 ADD PUSH2 0xA69 SWAP1 PUSH2 0x1651 JUMP JUMPDEST PUSH1 0x40 MLOAD DUP1 SWAP2 SUB SWAP1 REVERT JUMPDEST PUSH1 0x6 PUSH1 0x40 MLOAD DUP1 PUSH1 0x40 ADD PUSH1 0x40 MSTORE DUP1 CALLER PUSH20 0xFFFFFFFFFFFFFFFFFFFFFFFFFFFFFFFFFFFFFFFF AND DUP2 MSTORE PUSH1 0x20 ADD CALLVALUE DUP2 MSTORE POP SWAP1 DUP1 PUSH1 0x1 DUP2 SLOAD ADD DUP1 DUP3 SSTORE DUP1 SWAP2 POP POP PUSH1 0x1 SWAP1 SUB SWAP1 PUSH0 MSTORE PUSH1 0x20 PUSH0 KECCAK256 SWAP1 PUSH1 0x2 MUL ADD PUSH0 SWAP1 SWAP2 SWAP1 SWAP2 SWAP1 SWAP2 POP PUSH0 DUP3 ADD MLOAD DUP2 PUSH0 ADD PUSH0 PUSH2 0x100 EXP DUP2 SLOAD DUP2 PUSH20 0xFFFFFFFFFFFFFFFFFFFFFFFFFFFFFFFFFFFFFFFF MUL NOT AND SWAP1 DUP4 PUSH20 0xFFFFFFFFFFFFFFFFFFFFFFFFFFFFFFFFFFFFFFFF AND MUL OR SWAP1 SSTORE POP PUSH1 0x20 DUP3 ADD MLOAD DUP2 PUSH1 0x1 ADD SSTORE POP POP CALLVALUE PUSH1 0x4 PUSH0 DUP3 DUP3 SLOAD PUSH2 0xB26 SWAP2 SWAP1 PUSH2 0x123B JUMP JUMPDEST SWAP3 POP POP DUP2 SWAP1 SSTORE POP CALLER PUSH20 0xFFFFFFFFFFFFFFFFFFFFFFFFFFFFFFFFFFFFFFFF AND PUSH32 0x264F630D9EFA0D07053A31163641D9FCC0ADAFC9D9E76F1C37C2CE3A558D2C52 CALLVALUE PUSH1 0x40 MLOAD PUSH2 0xB73 SWAP2 SWAP1 PUSH2 0xC41 JUMP JUMPDEST PUSH1 0x40 MLOAD DUP1 SWAP2 SUB SWAP1 LOG2 JUMP JUMPDEST PUSH1 0x4 SLOAD DUP2 JUMP JUMPDEST PUSH1 0x6 DUP2 DUP2 SLOAD DUP2 LT PUSH2 0xB92 JUMPI PUSH0 DUP1 REVERT JUMPDEST SWAP1 PUSH0 MSTORE PUSH1 0x20 PUSH0 KECCAK256 SWAP1 PUSH1 0x2 MUL ADD PUSH0 SWAP2 POP SWAP1 POP DUP1 PUSH0 ADD PUSH0 SWAP1 SLOAD SWAP1 PUSH2 0x100 EXP SWAP1 DIV PUSH20 0xFFFFFFFFFFFFFFFFFFFFFFFFFFFFFFFFFFFFFFFF AND SWAP1 DUP1 PUSH1 0x1 ADD SLOAD SWAP1 POP DUP3 JUMP JUMPDEST PUSH0 PUSH20 0xFFFFFFFFFFFFFFFFFFFFFFFFFFFFFFFFFFFFFFFF DUP3 AND SWAP1 POP SWAP2 SWAP1 POP JUMP JUMPDEST PUSH0 PUSH2 0xBFA DUP3 PUSH2 0xBD1 JUMP JUMPDEST SWAP1 POP SWAP2 SWAP1 POP JUMP JUMPDEST PUSH2 0xC0A DUP2 PUSH2 0xBF0 JUMP JUMPDEST DUP3 MSTORE POP POP JUMP JUMPDEST PUSH0 PUSH1 0x20 DUP3 ADD SWAP1 POP PUSH2 0xC23 PUSH0 DUP4 ADD DUP5 PUSH2 0xC01 JUMP JUMPDEST SWAP3 SWAP2 POP POP JUMP JUMPDEST PUSH0 DUP2 SWAP1 POP SWAP2 SWAP1 POP JUMP JUMPDEST PUSH2 0xC3B DUP2 PUSH2 0xC29 JUMP JUMPDEST DUP3 MSTORE POP POP JUMP JUMPDEST PUSH0 PUSH1 0x20 DUP3 ADD SWAP1 POP PUSH2 0xC54 PUSH0 DUP4 ADD DUP5 PUSH2 0xC32 JUMP JUMPDEST SWAP3 SWAP2 POP POP JUMP JUMPDEST PUSH0 DUP2 MLOAD SWAP1 POP SWAP2 SWAP1 POP JUMP JUMPDEST PUSH0 DUP3 DUP3 MSTORE PUSH1 0x20 DUP3 ADD SWAP1 POP SWAP3 SWAP2 POP POP JUMP JUMPDEST DUP3 DUP2 DUP4 MCOPY PUSH0 DUP4 DUP4 ADD MSTORE POP POP POP JUMP JUMPDEST PUSH0 PUSH1 0x1F NOT PUSH1 0x1F DUP4 ADD AND SWAP1 POP SWAP2 SWAP1 POP JUMP JUMPDEST PUSH0 PUSH2 0xC9C DUP3 PUSH2 0xC5A JUMP JUMPDEST PUSH2 0xCA6 DUP2 DUP6 PUSH2 0xC64 JUMP JUMPDEST SWAP4 POP PUSH2 0xCB6 DUP2 DUP6 PUSH1 0x20 DUP7 ADD PUSH2 0xC74 JUMP JUMPDEST PUSH2 0xCBF DUP2 PUSH2 0xC82 JUMP JUMPDEST DUP5 ADD SWAP2 POP POP SWAP3 SWAP2 POP POP JUMP JUMPDEST PUSH0 PUSH1 0x20 DUP3 ADD SWAP1 POP DUP2 DUP2 SUB PUSH0 DUP4 ADD MSTORE PUSH2 0xCE2 DUP2 DUP5 PUSH2 0xC92 JUMP JUMPDEST SWAP1 POP SWAP3 SWAP2 POP POP JUMP JUMPDEST PUSH32 0x4E487B7100000000000000000000000000000000000000000000000000000000 PUSH0 MSTORE PUSH1 0x21 PUSH1 0x4 MSTORE PUSH1 0x24 PUSH0 REVERT JUMPDEST PUSH1 0x3 DUP2 LT PUSH2 0xD28 JUMPI PUSH2 0xD27 PUSH2 0xCEA JUMP JUMPDEST JUMPDEST POP JUMP JUMPDEST PUSH0 DUP2 SWAP1 POP PUSH2 0xD38 DUP3 PUSH2 0xD17 JUMP JUMPDEST SWAP2 SWAP1 POP JUMP JUMPDEST PUSH0 PUSH2 0xD47 DUP3 PUSH2 0xD2B JUMP JUMPDEST SWAP1 POP SWAP2 SWAP1 POP JUMP JUMPDEST PUSH2 0xD57 DUP2 PUSH2 0xD3D JUMP JUMPDEST DUP3 MSTORE POP POP JUMP JUMPDEST PUSH0 PUSH1 0x20 DUP3 ADD SWAP1 POP PUSH2 0xD70 PUSH0 DUP4 ADD DUP5 PUSH2 0xD4E JUMP JUMPDEST SWAP3 SWAP2 POP POP JUMP JUMPDEST PUSH0 PUSH1 0x40 MLOAD SWAP1 POP SWAP1 JUMP JUMPDEST PUSH0 DUP1 REVERT JUMPDEST PUSH0 DUP1 REVERT JUMPDEST PUSH2 0xD90 DUP2 PUSH2 0xBF0 JUMP JUMPDEST DUP2 EQ PUSH2 0xD9A JUMPI PUSH0 DUP1 REVERT JUMPDEST POP JUMP JUMPDEST PUSH0 DUP2 CALLDATALOAD SWAP1 POP PUSH2 0xDAB DUP2 PUSH2 0xD87 JUMP JUMPDEST SWAP3 SWAP2 POP POP JUMP JUMPDEST PUSH0 DUP1 REVERT JUMPDEST PUSH0 DUP1 REVERT JUMPDEST PUSH32 0x4E487B7100000000000000000000000000000000000000000000000000000000 PUSH0 MSTORE PUSH1 0x41 PUSH1 0x4 MSTORE PUSH1 0x24 PUSH0 REVERT JUMPDEST PUSH2 0xDEF DUP3 PUSH2 0xC82 JUMP JUMPDEST DUP2 ADD DUP2 DUP2 LT PUSH8 0xFFFFFFFFFFFFFFFF DUP3 GT OR ISZERO PUSH2 0xE0E JUMPI PUSH2 0xE0D PUSH2 0xDB9 JUMP JUMPDEST JUMPDEST DUP1 PUSH1 0x40 MSTORE POP POP POP JUMP JUMPDEST PUSH0 PUSH2 0xE20 PUSH2 0xD76 JUMP JUMPDEST SWAP1 POP PUSH2 0xE2C DUP3 DUP3 PUSH2 0xDE6 JUMP JUMPDEST SWAP2 SWAP1 POP JUMP JUMPDEST PUSH0 PUSH8 0xFFFFFFFFFFFFFFFF DUP3 GT ISZERO PUSH2 0xE4B JUMPI PUSH2 0xE4A PUSH2 0xDB9 JUMP JUMPDEST JUMPDEST PUSH2 0xE54 DUP3 PUSH2 0xC82 JUMP JUMPDEST SWAP1 POP PUSH1 0x20 DUP2 ADD SWAP1 POP SWAP2 SWAP1 POP JUMP JUMPDEST DUP3 DUP2 DUP4 CALLDATACOPY PUSH0 DUP4 DUP4 ADD MSTORE POP POP POP JUMP JUMPDEST PUSH0 PUSH2 0xE81 PUSH2 0xE7C DUP5 PUSH2 0xE31 JUMP JUMPDEST PUSH2 0xE17 JUMP JUMPDEST SWAP1 POP DUP3 DUP2 MSTORE PUSH1 0x20 DUP2 ADD DUP5 DUP5 DUP5 ADD GT ISZERO PUSH2 0xE9D JUMPI PUSH2 0xE9C PUSH2 0xDB5 JUMP JUMPDEST JUMPDEST PUSH2 0xEA8 DUP5 DUP3 DUP6 PUSH2 0xE61 JUMP JUMPDEST POP SWAP4 SWAP3 POP POP POP JUMP JUMPDEST PUSH0 DUP3 PUSH1 0x1F DUP4 ADD SLT PUSH2 0xEC4 JUMPI PUSH2 0xEC3 PUSH2 0xDB1 JUMP JUMPDEST JUMPDEST DUP2 CALLDATALOAD PUSH2 0xED4 DUP5 DUP3 PUSH1 0x20 DUP7 ADD PUSH2 0xE6F JUMP JUMPDEST SWAP2 POP POP SWAP3 SWAP2 POP POP JUMP JUMPDEST PUSH2 0xEE6 DUP2 PUSH2 0xC29 JUMP JUMPDEST DUP2 EQ PUSH2 0xEF0 JUMPI PUSH0 DUP1 REVERT JUMPDEST POP JUMP JUMPDEST PUSH0 DUP2 CALLDATALOAD SWAP1 POP PUSH2 0xF01 DUP2 PUSH2 0xEDD JUMP JUMPDEST SWAP3 SWAP2 POP POP JUMP JUMPDEST PUSH0 DUP1 PUSH0 DUP1 PUSH1 0x80 DUP6 DUP8 SUB SLT ISZERO PUSH2 0xF1F JUMPI PUSH2 0xF1E PUSH2 0xD7F JUMP JUMPDEST JUMPDEST PUSH0 PUSH2 0xF2C DUP8 DUP3 DUP9 ADD PUSH2 0xD9D JUMP JUMPDEST SWAP5 POP POP PUSH1 0x20 DUP6 ADD CALLDATALOAD PUSH8 0xFFFFFFFFFFFFFFFF DUP2 GT ISZERO PUSH2 0xF4D JUMPI PUSH2 0xF4C PUSH2 0xD83 JUMP JUMPDEST JUMPDEST PUSH2 0xF59 DUP8 DUP3 DUP9 ADD PUSH2 0xEB0 JUMP JUMPDEST SWAP4 POP POP PUSH1 0x40 PUSH2 0xF6A DUP8 DUP3 DUP9 ADD PUSH2 0xEF3 JUMP JUMPDEST SWAP3 POP POP PUSH1 0x60 PUSH2 0xF7B DUP8 DUP3 DUP9 ADD PUSH2 0xEF3 JUMP JUMPDEST SWAP2 POP POP SWAP3 SWAP6 SWAP2 SWAP5 POP SWAP3 POP JUMP JUMPDEST PUSH0 PUSH1 0x20 DUP3 DUP5 SUB SLT ISZERO PUSH2 0xF9C JUMPI PUSH2 0xF9B PUSH2 0xD7F JUMP JUMPDEST JUMPDEST PUSH0 PUSH2 0xFA9 DUP5 DUP3 DUP6 ADD PUSH2 0xEF3 JUMP JUMPDEST SWAP2 POP POP SWAP3 SWAP2 POP POP JUMP JUMPDEST PUSH0 PUSH1 0x40 DUP3 ADD SWAP1 POP PUSH2 0xFC5 PUSH0 DUP4 ADD DUP6 PUSH2 0xC01 JUMP JUMPDEST PUSH2 0xFD2 PUSH1 0x20 DUP4 ADD DUP5 PUSH2 0xC32 JUMP JUMPDEST SWAP4 SWAP3 POP POP POP JUMP JUMPDEST PUSH32 0x4E6F74207468652070726F6A6563742063726561746F72000000000000000000 PUSH0 DUP3 ADD MSTORE POP JUMP JUMPDEST PUSH0 PUSH2 0x100D PUSH1 0x17 DUP4 PUSH2 0xC64 JUMP JUMPDEST SWAP2 POP PUSH2 0x1018 DUP3 PUSH2 0xFD9 JUMP JUMPDEST PUSH1 0x20 DUP3 ADD SWAP1 POP SWAP2 SWAP1 POP JUMP JUMPDEST PUSH0 PUSH1 0x20 DUP3 ADD SWAP1 POP DUP2 DUP2 SUB PUSH0 DUP4 ADD MSTORE PUSH2 0x103A DUP2 PUSH2 0x1001 JUMP JUMPDEST SWAP1 POP SWAP2 SWAP1 POP JUMP JUMPDEST PUSH32 0x50726F6A656374206973207374696C6C206F6E676F696E670000000000000000 PUSH0 DUP3 ADD MSTORE POP JUMP JUMPDEST PUSH0 PUSH2 0x1075 PUSH1 0x18 DUP4 PUSH2 0xC64 JUMP JUMPDEST SWAP2 POP PUSH2 0x1080 DUP3 PUSH2 0x1041 JUMP JUMPDEST PUSH1 0x20 DUP3 ADD SWAP1 POP SWAP2 SWAP1 POP JUMP JUMPDEST PUSH0 PUSH1 0x20 DUP3 ADD SWAP1 POP DUP2 DUP2 SUB PUSH0 DUP4 ADD MSTORE PUSH2 0x10A2 DUP2 PUSH2 0x1069 JUMP JUMPDEST SWAP1 POP SWAP2 SWAP1 POP JUMP JUMPDEST PUSH32 0x50726F6A656374206973206E6F74207375636365737366756C00000000000000 PUSH0 DUP3 ADD MSTORE POP JUMP JUMPDEST PUSH0 PUSH2 0x10DD PUSH1 0x19 DUP4 PUSH2 0xC64 JUMP JUMPDEST SWAP2 POP PUSH2 0x10E8 DUP3 PUSH2 0x10A9 JUMP JUMPDEST PUSH1 0x20 DUP3 ADD SWAP1 POP SWAP2 SWAP1 POP JUMP JUMPDEST PUSH0 PUSH1 0x20 DUP3 ADD SWAP1 POP DUP2 DUP2 SUB PUSH0 DUP4 ADD MSTORE PUSH2 0x110A DUP2 PUSH2 0x10D1 JUMP JUMPDEST SWAP1 POP SWAP2 SWAP1 POP JUMP JUMPDEST PUSH32 0x50726F6A65637420697320616C72656164792066696E616C697A656400000000 PUSH0 DUP3 ADD MSTORE POP JUMP JUMPDEST PUSH0 PUSH2 0x1145 PUSH1 0x1C DUP4 PUSH2 0xC64 JUMP JUMPDEST SWAP2 POP PUSH2 0x1150 DUP3 PUSH2 0x1111 JUMP JUMPDEST PUSH1 0x20 DUP3 ADD SWAP1 POP SWAP2 SWAP1 POP JUMP JUMPDEST PUSH0 PUSH1 0x20 DUP3 ADD SWAP1 POP DUP2 DUP2 SUB PUSH0 DUP4 ADD MSTORE PUSH2 0x1172 DUP2 PUSH2 0x1139 JUMP JUMPDEST SWAP1 POP SWAP2 SWAP1 POP JUMP JUMPDEST PUSH32 0x50726F6A656374206973206E6F74206661696C65640000000000000000000000 PUSH0 DUP3 ADD MSTORE POP JUMP JUMPDEST PUSH0 PUSH2 0x11AD PUSH1 0x15 DUP4 PUSH2 0xC64 JUMP JUMPDEST SWAP2 POP PUSH2 0x11B8 DUP3 PUSH2 0x1179 JUMP JUMPDEST PUSH1 0x20 DUP3 ADD SWAP1 POP SWAP2 SWAP1 POP JUMP JUMPDEST PUSH0 PUSH1 0x20 DUP3 ADD SWAP1 POP DUP2 DUP2 SUB PUSH0 DUP4 ADD MSTORE PUSH2 0x11DA DUP2 PUSH2 0x11A1 JUMP JUMPDEST SWAP1 POP SWAP2 SWAP1 POP JUMP JUMPDEST PUSH32 0x4E487B7100000000000000000000000000000000000000000000000000000000 PUSH0 MSTORE PUSH1 0x32 PUSH1 0x4 MSTORE PUSH1 0x24 PUSH0 REVERT JUMPDEST PUSH32 0x4E487B7100000000000000000000000000000000000000000000000000000000 PUSH0 MSTORE PUSH1 0x11 PUSH1 0x4 MSTORE PUSH1 0x24 PUSH0 REVERT JUMPDEST PUSH0 PUSH2 0x1245 DUP3 PUSH2 0xC29 JUMP JUMPDEST SWAP2 POP PUSH2 0x1250 DUP4 PUSH2 0xC29 JUMP JUMPDEST SWAP3 POP DUP3 DUP3 ADD SWAP1 POP DUP1 DUP3 GT ISZERO PUSH2 0x1268 JUMPI PUSH2 0x1267 PUSH2 0x120E JUMP JUMPDEST JUMPDEST SWAP3 SWAP2 POP POP JUMP JUMPDEST PUSH32 0x4E6F2066756E647320746F20726566756E640000000000000000000000000000 PUSH0 DUP3 ADD MSTORE POP JUMP JUMPDEST PUSH0 PUSH2 0x12A2 PUSH1 0x12 DUP4 PUSH2 0xC64 JUMP JUMPDEST SWAP2 POP PUSH2 0x12AD DUP3 PUSH2 0x126E JUMP JUMPDEST PUSH1 0x20 DUP3 ADD SWAP1 POP SWAP2 SWAP1 POP JUMP JUMPDEST PUSH0 PUSH1 0x20 DUP3 ADD SWAP1 POP DUP2 DUP2 SUB PUSH0 DUP4 ADD MSTORE PUSH2 0x12CF DUP2 PUSH2 0x1296 JUMP JUMPDEST SWAP1 POP SWAP2 SWAP1 POP JUMP JUMPDEST PUSH32 0x4E487B7100000000000000000000000000000000000000000000000000000000 PUSH0 MSTORE PUSH1 0x22 PUSH1 0x4 MSTORE PUSH1 0x24 PUSH0 REVERT JUMPDEST PUSH0 PUSH1 0x2 DUP3 DIV SWAP1 POP PUSH1 0x1 DUP3 AND DUP1 PUSH2 0x131A JUMPI PUSH1 0x7F DUP3 AND SWAP2 POP JUMPDEST PUSH1 0x20 DUP3 LT DUP2 SUB PUSH2 0x132D JUMPI PUSH2 0x132C PUSH2 0x12D6 JUMP JUMPDEST JUMPDEST POP SWAP2 SWAP1 POP JUMP JUMPDEST PUSH0 DUP2 SWAP1 POP DUP2 PUSH0 MSTORE PUSH1 0x20 PUSH0 KECCAK256 SWAP1 POP SWAP2 SWAP1 POP JUMP JUMPDEST PUSH0 PUSH1 0x20 PUSH1 0x1F DUP4 ADD DIV SWAP1 POP SWAP2 SWAP1 POP JUMP JUMPDEST PUSH0 DUP3 DUP3 SHL SWAP1 POP SWAP3 SWAP2 POP POP JUMP JUMPDEST PUSH0 PUSH1 0x8 DUP4 MUL PUSH2 0x138F PUSH32 0xFFFFFFFFFFFFFFFFFFFFFFFFFFFFFFFFFFFFFFFFFFFFFFFFFFFFFFFFFFFFFFFF DUP3 PUSH2 0x1354 JUMP JUMPDEST PUSH2 0x1399 DUP7 DUP4 PUSH2 0x1354 JUMP JUMPDEST SWAP6 POP DUP1 NOT DUP5 AND SWAP4 POP DUP1 DUP7 AND DUP5 OR SWAP3 POP POP POP SWAP4 SWAP3 POP POP POP JUMP JUMPDEST PUSH0 DUP2 SWAP1 POP SWAP2 SWAP1 POP JUMP JUMPDEST PUSH0 PUSH2 0x13D4 PUSH2 0x13CF PUSH2 0x13CA DUP5 PUSH2 0xC29 JUMP JUMPDEST PUSH2 0x13B1 JUMP JUMPDEST PUSH2 0xC29 JUMP JUMPDEST SWAP1 POP SWAP2 SWAP1 POP JUMP JUMPDEST PUSH0 DUP2 SWAP1 POP SWAP2 SWAP1 POP JUMP JUMPDEST PUSH2 0x13ED DUP4 PUSH2 0x13BA JUMP JUMPDEST PUSH2 0x1401 PUSH2 0x13F9 DUP3 PUSH2 0x13DB JUMP JUMPDEST DUP5 DUP5 SLOAD PUSH2 0x1360 JUMP JUMPDEST DUP3 SSTORE POP POP POP POP JUMP JUMPDEST PUSH0 SWAP1 JUMP JUMPDEST PUSH2 0x1415 PUSH2 0x1409 JUMP JUMPDEST PUSH2 0x1420 DUP2 DUP5 DUP5 PUSH2 0x13E4 JUMP JUMPDEST POP POP POP JUMP JUMPDEST JUMPDEST DUP2 DUP2 LT ISZERO PUSH2 0x1443 JUMPI PUSH2 0x1438 PUSH0 DUP3 PUSH2 0x140D JUMP JUMPDEST PUSH1 0x1 DUP2 ADD SWAP1 POP PUSH2 0x1426 JUMP JUMPDEST POP POP JUMP JUMPDEST PUSH1 0x1F DUP3 GT ISZERO PUSH2 0x1488 JUMPI PUSH2 0x1459 DUP2 PUSH2 0x1333 JUMP JUMPDEST PUSH2 0x1462 DUP5 PUSH2 0x1345 JUMP JUMPDEST DUP2 ADD PUSH1 0x20 DUP6 LT ISZERO PUSH2 0x1471 JUMPI DUP2 SWAP1 POP JUMPDEST PUSH2 0x1485 PUSH2 0x147D DUP6 PUSH2 0x1345 JUMP JUMPDEST DUP4 ADD DUP3 PUSH2 0x1425 JUMP JUMPDEST POP POP JUMPDEST POP POP POP JUMP JUMPDEST PUSH0 DUP3 DUP3 SHR SWAP1 POP SWAP3 SWAP2 POP POP JUMP JUMPDEST PUSH0 PUSH2 0x14A8 PUSH0 NOT DUP5 PUSH1 0x8 MUL PUSH2 0x148D JUMP JUMPDEST NOT DUP1 DUP4 AND SWAP2 POP POP SWAP3 SWAP2 POP POP JUMP JUMPDEST PUSH0 PUSH2 0x14C0 DUP4 DUP4 PUSH2 0x1499 JUMP JUMPDEST SWAP2 POP DUP3 PUSH1 0x2 MUL DUP3 OR SWAP1 POP SWAP3 SWAP2 POP POP JUMP JUMPDEST PUSH2 0x14D9 DUP3 PUSH2 0xC5A JUMP JUMPDEST PUSH8 0xFFFFFFFFFFFFFFFF DUP2 GT ISZERO PUSH2 0x14F2 JUMPI PUSH2 0x14F1 PUSH2 0xDB9 JUMP JUMPDEST JUMPDEST PUSH2 0x14FC DUP3 SLOAD PUSH2 0x1303 JUMP JUMPDEST PUSH2 0x1507 DUP3 DUP3 DUP6 PUSH2 0x1447 JUMP JUMPDEST PUSH0 PUSH1 0x20 SWAP1 POP PUSH1 0x1F DUP4 GT PUSH1 0x1 DUP2 EQ PUSH2 0x1538 JUMPI PUSH0 DUP5 ISZERO PUSH2 0x1526 JUMPI DUP3 DUP8 ADD MLOAD SWAP1 POP JUMPDEST PUSH2 0x1530 DUP6 DUP3 PUSH2 0x14B5 JUMP JUMPDEST DUP7 SSTORE POP PUSH2 0x1597 JUMP JUMPDEST PUSH1 0x1F NOT DUP5 AND PUSH2 0x1546 DUP7 PUSH2 0x1333 JUMP JUMPDEST PUSH0 JUMPDEST DUP3 DUP2 LT ISZERO PUSH2 0x156D JUMPI DUP5 DUP10 ADD MLOAD DUP3 SSTORE PUSH1 0x1 DUP3 ADD SWAP2 POP PUSH1 0x20 DUP6 ADD SWAP5 POP PUSH1 0x20 DUP2 ADD SWAP1 POP PUSH2 0x1548 JUMP JUMPDEST DUP7 DUP4 LT ISZERO PUSH2 0x158A JUMPI DUP5 DUP10 ADD MLOAD PUSH2 0x1586 PUSH1 0x1F DUP10 AND DUP3 PUSH2 0x1499 JUMP JUMPDEST DUP4 SSTORE POP JUMPDEST PUSH1 0x1 PUSH1 0x2 DUP9 MUL ADD DUP9 SSTORE POP POP POP JUMPDEST POP POP POP POP POP POP JUMP JUMPDEST PUSH32 0x50726F6A656374206973206E6F74206F6E676F696E6700000000000000000000 PUSH0 DUP3 ADD MSTORE POP JUMP JUMPDEST PUSH0 PUSH2 0x15D3 PUSH1 0x16 DUP4 PUSH2 0xC64 JUMP JUMPDEST SWAP2 POP PUSH2 0x15DE DUP3 PUSH2 0x159F JUMP JUMPDEST PUSH1 0x20 DUP3 ADD SWAP1 POP SWAP2 SWAP1 POP JUMP JUMPDEST PUSH0 PUSH1 0x20 DUP3 ADD SWAP1 POP DUP2 DUP2 SUB PUSH0 DUP4 ADD MSTORE PUSH2 0x1600 DUP2 PUSH2 0x15C7 JUMP JUMPDEST SWAP1 POP SWAP2 SWAP1 POP JUMP JUMPDEST PUSH32 0x50726F6A65637420646561646C696E6520686173207061737365640000000000 PUSH0 DUP3 ADD MSTORE POP JUMP JUMPDEST PUSH0 PUSH2 0x163B PUSH1 0x1B DUP4 PUSH2 0xC64 JUMP JUMPDEST SWAP2 POP PUSH2 0x1646 DUP3 PUSH2 0x1607 JUMP JUMPDEST PUSH1 0x20 DUP3 ADD SWAP1 POP SWAP2 SWAP1 POP JUMP JUMPDEST PUSH0 PUSH1 0x20 DUP3 ADD SWAP1 POP DUP2 DUP2 SUB PUSH0 DUP4 ADD MSTORE PUSH2 0x1668 DUP2 PUSH2 0x162F JUMP JUMPDEST SWAP1 POP SWAP2 SWAP1 POP JUMP INVALID LOG2 PUSH5 0x6970667358 0x22 SLT KECCAK256 CALLVALUE TIMESTAMP CODECOPY 0xB9 0xB3 0xC0 SWAP2 0x4F SAR 0xF7 SHL 0x2C KECCAK256 SHL 0xDE 0xB7 INVALID LOG4 0xCE PREVRANDAO SLOAD EXTCODEHASH SWAP1 LOG4 0xCF BLOCKHASH CALLCODE DUP2 PUSH13 0x7FCD1064736F6C634300081A00 CALLER "
				},
				"gasEstimates": {
					"creation": {
						"codeDepositCost": "1159400",
						"executionCost": "1205",
						"totalCost": "1160605"
					},
					"external": {
						"creator()": "2506",
						"currentAmount()": "2513",
						"deadline()": "2492",
						"description()": "infinite",
						"donate()": "infinite",
						"donations(uint256)": "infinite",
						"goalAmount()": "2470",
						"initialize(address,string,uint256,uint256)": "infinite",
						"refund()": "infinite",
						"state()": "2576",
						"updateProjectState()": "36503",
						"withdrawFunds()": "infinite"
					}
				},
				"methodIdentifiers": {
					"creator()": "02d05d3f",
					"currentAmount()": "f441b1c8",
					"deadline()": "29dcb0cf",
					"description()": "7284e416",
					"donate()": "ed88c68e",
					"donations(uint256)": "f8626af8",
					"goalAmount()": "2636b945",
					"initialize(address,string,uint256,uint256)": "e8668c52",
					"refund()": "590e1ae3",
					"state()": "c19d93fb",
					"updateProjectState()": "3deb33e7",
					"withdrawFunds()": "24600fc3"
				}
			},
			"storageLayout": {
				"storage": [
					{
						"astId": 1488,
						"contract": "contracts/Project.sol:Project",
						"label": "creator",
						"offset": 0,
						"slot": "0",
						"type": "t_address"
					},
					{
						"astId": 1490,
						"contract": "contracts/Project.sol:Project",
						"label": "description",
						"offset": 0,
						"slot": "1",
						"type": "t_string_storage"
					},
					{
						"astId": 1492,
						"contract": "contracts/Project.sol:Project",
						"label": "goalAmount",
						"offset": 0,
						"slot": "2",
						"type": "t_uint256"
					},
					{
						"astId": 1494,
						"contract": "contracts/Project.sol:Project",
						"label": "deadline",
						"offset": 0,
						"slot": "3",
						"type": "t_uint256"
					},
					{
						"astId": 1496,
						"contract": "contracts/Project.sol:Project",
						"label": "currentAmount",
						"offset": 0,
						"slot": "4",
						"type": "t_uint256"
					},
					{
						"astId": 1499,
						"contract": "contracts/Project.sol:Project",
						"label": "state",
						"offset": 0,
						"slot": "5",
						"type": "t_enum(ProjectState)1481"
					},
					{
						"astId": 1503,
						"contract": "contracts/Project.sol:Project",
						"label": "donations",
						"offset": 0,
						"slot": "6",
						"type": "t_array(t_struct(Donation)1486_storage)dyn_storage"
					}
				],
				"types": {
					"t_address": {
						"encoding": "inplace",
						"label": "address",
						"numberOfBytes": "20"
					},
					"t_array(t_struct(Donation)1486_storage)dyn_storage": {
						"base": "t_struct(Donation)1486_storage",
						"encoding": "dynamic_array",
						"label": "struct Project.Donation[]",
						"numberOfBytes": "32"
					},
					"t_enum(ProjectState)1481": {
						"encoding": "inplace",
						"label": "enum Project.ProjectState",
						"numberOfBytes": "1"
					},
					"t_string_storage": {
						"encoding": "bytes",
						"label": "string",
						"numberOfBytes": "32"
					},
					"t_struct(Donation)1486_storage": {
						"encoding": "inplace",
						"label": "struct Project.Donation",
						"members": [
							{
								"astId": 1483,
								"contract": "contracts/Project.sol:Project",
								"label": "donor",
								"offset": 0,
								"slot": "0",
								"type": "t_address"
							},
							{
								"astId": 1485,
								"contract": "contracts/Project.sol:Project",
								"label": "amount",
								"offset": 0,
								"slot": "1",
								"type": "t_uint256"
							}
						],
						"numberOfBytes": "64"
					},
					"t_uint256": {
						"encoding": "inplace",
						"label": "uint256",
						"numberOfBytes": "32"
					}
				}
			},
			"userdoc": {
				"kind": "user",
				"methods": {},
				"version": 1
			}
		}
	}
}